:100000000C9437030C9416270C9447270C947827EC
:100010000C9462030C9462030C9462030C946203CC
:100020000C9462030C9462030C9462030C946203BC
:100030000C9462030C9462030C9462030C946203AC
:100040000C9462030C9462030C94A9270C94620331
:100050000C94D8290C947C2A0C9462030C946203AF
:100060000C9462030C9462030C9462030C9462037C
:100070000C94182A0C94BB2A0C9462030C9462030F
:100080000C9462030C9462030C946203076342367F
:10009000B79BD8A71A39685618AEBAAB558C1D3C19
:1000A000B7CC5763BD6DEDFD753EF6177231BF00DD
:1000B0000000803F08000000BE922449123EABAA17
:1000C000AA2ABECDCCCC4C3E00000080BEABAAAA72
:1000D000AA3E00000000BF000000803F00000000BA
:1000E00000084178D3BB4387D1133D190E3CC3BDF3
:1000F0004282AD2B3E68EC8276BED98FE1A93E4CA0
:1001000080EFFFBE01C4FF7F3F0000000000646578
:10011000766963653D200053696D3D200050696E2E
:100120003D2000726573657474696E672063686949
:1001300070004472756B2072206F6D206465206DB5
:10014000616368696E65207465207374617274659B
:100150006E002D2D2D2D2D2D004669726D7761724B
:10016000652076657273696F6E3A20006472756BF4
:10017000207220766F6F722072756E6E656E0055FC
:100180006974207465726D696E616C206D6F646551
:1001900000656E642077697468202A007465726D4A
:1001A000696E616C206D6F64652000616C2065650F
:1001B000726465722073657474696E677320656E0E
:1001C0002074696A64206F7067656861616C64207F
:1001D000647573206765776F6F6E207665726465EE
:1001E0007200726573657474696E67206368697004
:1001F00000666F7574636F646520776F7264742036
:100200006F706765737475757264206D65742063B3
:100210006F64653A200047505253547269616C73A1
:100220003D200068747470547269616C733D2000E5
:1002300074696D65547269616C733D20006D6F74F3
:100240006F72547269616C733D2000696E20726137
:1002500070706F7274656572666F7574206D657409
:1002600020636F64653A200054696A6420676F6593
:10027000642062696E6E656E2067656861616C649A
:100280000054696A64206E69657420676F65642034
:1002900062696E6E656E2067656861616C640054AA
:1002A000696A64737472696E673A200075697420B4
:1002B000687474707265717565737400696E206816
:1002C00074747072657175657374206D65742074D3
:1002D0007269616C733A2000756974206665746395
:1002E00068726573706F6E736500696E2066657401
:1002F0006368726573706F6E73652C2064757572B8
:1003000074206576656E002A2A00696E766F6572C4
:10031000203D200073696D3D200073657475704742
:1003200050525370726F66696C65005761697466EC
:100330006F724F4B206166676562726F6B656E20EE
:100340006F702074696D656F7574004572726F729D
:100350002053657269656C6520706F6F72740069F7
:100360006E2064756D70726573706F6E7365007367
:10037000657475706D6F64656D007569742070616A
:100380007273654A736F6E00506F6D703A2000751E
:10039000706420006E6F207265736574005265731F
:1003A00065742100696E2070617273654A736F6EA7
:1003B000007765656B6C696A7374636F756E743D05
:1003C000200070756D706F66663A200070756D70F4
:1003D0006F6E3A20003A0054696D653A20007075DE
:1003E0006D7073706565644F6E3A200074696A645D
:1003F00020766F6F722065656E207570646174651C
:1004000000456E7465726564207365727669636514
:10041000206D6F6465007765656B6C696A737463E2
:100420006F756E743D200070756D706F66663A2052
:100430000070756D706F6E3A20003A0054696D65FA
:100440003A200070756D7073706565644F6E3A2068
:1004500000696E2072756E6E696E67282900776577
:10046000656B6C696A7374636F756E743D200070A0
:10047000756D706F66663A200070756D706F6E3ABC
:1004800020003A0054696D653A200070756D7073F4
:10049000706565644F6E3A200074696A6420766FF7
:1004A0006F722065656E2075706461746500456EBD
:1004B00074657265642073657276696365206D6F1B
:1004C0006465007765656B6C696A7374636F756EDC
:1004D000743D20003A0054696D653A200070756DD6
:1004E000706F66663A200070756D706F6E3A20000E
:1004F00070756D7073706565644F6E3A20002A2ABE
:100500002A2A2A2A2A2A2A2A2A2A2A2A2A2A2A2A4B
:100510002A2A2A2A2A2A2A2A004669726D776172B3
:10052000652076657273696F6E2000537072656125
:1005300064696E6720556E657870656374656420C4
:10054000536D696C6573002A2A2A2A2A2A2A2A2AC4
:100550002A2A2A2A2A2A2A2A2A2A2A2A2A2A2A2AFB
:100560002A00456E746572656420736572766963EE
:1005700065206D6F6465002A004D6F64656D2069AC
:100580006E6765736368616B656C64006D6F64654D
:100590006D2061616E207A657474656E00696E20ED
:1005A0006C6F6F7000496E74657272757074206440
:1005B0006574656374656400726573657474696EEF
:1005C00067206368697000706F6D7020756974676B
:1005D0006576616C6C656E006D6F746F72737472AA
:1005E0006F6F6D3A200000002100240027002A00D0
:1005F00000002200250028002B000000200023001E
:10060000260029000202020202020202040404047B
:1006100004040404030303030303030301010101AE
:1006200001010101010204081020408001020408B8
:1006300010204080010204081020408001020408BC
:1006400010204080000000010200080900000000A6
:100650000403070600000000000000000000000086
:10066000000000008C06A21C912C3F2D8506112451
:100670001FBECFEFD0E4DEBFCDBF16E0A0E0B1E0FB
:10068000ECE7FCE600E00BBF02C007900D92AE362F
:10069000B107D9F71BBE12E1AEE6B6E001C01D926C
:1006A000A23FB107E1F716E0CCE6D6E004C02297FE
:1006B000FE010E94F635C436D107C9F70E94902D7D
:1006C0000C9431360C940000CF93DF93BC01823040
:1006D000910510F462E070E0A091F012B091F11277
:1006E000ED01E0E0F0E040E050E021C08881998138
:1006F0008617970769F48A819B81309719F0938355
:10070000828304C09093F1128093F012FE0134C0F2
:100710006817790738F44115510519F084179507C2
:1007200008F4AC01FE018A819B819C01E9012097BC
:10073000E9F641155105A9F1CA01861B970B0497EB
:1007400008F4BA01E0E0F0E02AC08D919C91119785
:1007500084179507F9F46417750781F412968D9143
:100760009C911397309719F09383828304C09093E0
:10077000F1128093F012FD0132964CC0CA01861B23
:10078000970BFD01E80FF91F6193719302978D9309
:100790009C9340C0FD01828193819C01D9011097F7
:1007A000A1F68091EE129091EF12892B41F4809185
:1007B0001006909111069093EF128093EE124091E3
:1007C0001206509113064115510541F44DB75EB71D
:1007D00080910E0690910F06481B590B2091EE1246
:1007E0003091EF12CA01821B930B8617970780F096
:1007F000AB014E5F5F4F8417950750F0420F531FB8
:100800005093EF124093EE12F9016193719302C07D
:10081000E0E0F0E0CF01DF91CF910895CF93DF9337
:10082000009709F450C0EC0122971B821A82A09114
:10083000F012B091F112109709F140E050E0AC17BE
:10084000BD0708F1BB83AA83FE0121913191E20F1C
:10085000F31FAE17BF0779F48D919C911197280F64
:10086000391F2E5F3F4F3983288312968D919C91BB
:1008700013979B838A834115510571F4D093F1122C
:10088000C093F01220C012968D919C911397AD01E8
:10089000009711F0DC01D3CFFA01D383C2832191F9
:1008A0003191E20FF31FCE17DF0769F48881998138
:1008B000280F391F2E5F3F4FFA01318320838A8131
:1008C0009B8193838283DF91CF910895A0E0B0E074
:1008D000ECE6F4E00C94FC356C01009729F4CB01B4
:1008E0000E9464036C01C1C08EEF882E8FEF982E9A
:1008F0008C0C9D1C8601060F171F0815190508F49E
:10090000B2C0F401A081B181A617B707B8F0A53035
:10091000B10508F4AAC0CD0104978617970708F41B
:10092000A4C01297A61BB70BF801A193B193D401F1
:100930006D937C93CF010E940E0497C07B01EA1A4D
:10094000FB0AEEEFFFEFEE0EFF1E36016A0E7B1E76
:10095000C091F012D091F11244245524AA24BB2452
:100960004AC0C615D705E1F5488159814E155F0586
:10097000B8F1CA0104978E159F05B0F41296A40F22
:10098000B51FF401B183A0832A813B814114510436
:1009900031F0D20113963C932E93129766C0309398
:1009A000F1122093F01261C08A819B81F801938338
:1009B0008283425050404E195F0951834083411455
:1009C000510431F0D20113961C930E93129704C078
:1009D0001093F1120093F012F4017183608345C00B
:1009E00088819981A816B90608F45C012E018A81D4
:1009F0009B819C01E901209709F0B3CF8091EE1211
:100A00009091EF1286159705E9F4A616B706D0F473
:100A100020911206309113062115310541F42DB7AE
:100A20003EB780910E0690910F06281B390B0217D6
:100A30001307C8F41093EF120093EE12D4016D93D4
:100A40007C9313C0CB010E946403EC01009759F022
:100A5000F40140815181B6010E948005C6010E94C7
:100A60000E046E0102C0CC24DD24C601CDB7DEB772
:100A7000E0E10C941836FC0188279927E89421912D
:100A80002032E9F3293010F02E30C8F32B3241F038
:100A90002D3239F4689404C00E94E905820F911D3B
:100AA000219120532A30C0F31EF4909581959F4FD9
:100AB00008951F93FC0199278827BC01E8941191A0
:100AC0001032E9F3193010F01E30C8F31B3251F028
:100AD0001D3249F4689406C00E94D405610F711D4F
:100AE000811D911D119110531A30B0F33EF4909571
:100AF0008095709561957F4F8F4F9F4F1F910895FF
:100B0000FB01DC0102C001900D9241505040D8F72A
:100B10000895FB01DC018D9181341CF08B350CF4C0
:100B2000805E619161341CF06B350CF4605E861B55
:100B3000611189F3990B0895FB01DC018D910190FE
:100B400080190110D9F3990B0895FB01DC01019084
:100B50000D920020E1F70895FB01DC014150504067
:100B600030F08D910190801919F40020B9F7881B9D
:100B7000990B0895FB0151915523A9F0BF01DC01A8
:100B80004D9145174111E1F759F4CD010190002035
:100B900049F04D9140154111C9F3FB014111EFCFCF
:100BA00081E090E001970895592F482F372F262F85
:100BB000660F771F881F991F660F771F881F991F61
:100BC000620F731F841F951F660F771F881F991F61
:100BD00008957AE0979F902D879F802D910D112485
:100BE0000895FA01CF93FF93EF932230CCF0253292
:100BF000BCF4C22F2C2F332744275527FF93EF93A4
:100C00000E94BE35EF91FF91605D6A330CF0695D23
:100C10006193B901CA01605070408040904051F723
:100C200010828F919F91CF910C941606DC01FC01EC
:100C3000672F71917723E1F7329704C07C916D9310
:100C400070836291AE17BF07C8F308950F93813088
:100C5000910509F03FC06F5F7F4F09F054C08BE5ED
:100C600090E160E040E020E000E00E94332D0E942F
:100C70005E266093420770934307809344079093E6
:100C800045070E945E26609346077093470780934E
:100C900048079093490786E697E060E071E00E947C
:100CA00066318DE697E060E071E00E94663184E491
:100CB00090E160E071E00E9466318BE490E160E0D9
:100CC00071E00E94663182E590E161E071E00E948E
:100CD000663119C0892BB9F46F5F7F4FA1F482E5AB
:100CE00090E10E9407328BE490E10E94073284E495
:100CF00090E10E9407328DE697E00E94073286E677
:100D000097E00E9407320F91089580E090E06FEF26
:100D10007FEF0E942606089581E090E06FEF7FEF5D
:100D20000E942606089584E490E160E071E00E944C
:100D30009A3183E890E161E070E00E94D12680332F
:100D400061F083E890E161E070E00E94D126682FB5
:100D500084E490E10E940A3108C083E890E162E0F7
:100D600070E00E94D126803359F083E890E162E080
:100D700070E00E94D126682F84E490E10E940A313D
:100D800083E890E163E070E00E94D126682F84E45C
:100D900090E10E940A3183E890E164E070E00E94F3
:100DA000D126682F84E490E10E940A3183E890E123
:100DB00065E070E00E94D126682F84E490E10E94F3
:100DC0000A310895AF92BF92CF92DF92EF92FF92D5
:100DD0000F931F93DF93CF93CDB7DEB72E970FB648
:100DE000F894DEBF0FBECDBF6C015E010894A11C5C
:100DF000B11CC50160E071E00E946631C50160E090
:100E000071E00E949A318E01085F1F4FC80166E0B1
:100E100071E00E946631C601B8010E945C307C011D
:100E2000C8010E9407321E141F040CF0A3C083EAFD
:100E300091E1B7014AE050E00E94422FF60164813F
:100E4000758183EA91E14AE050E00E94C02EF601EC
:100E5000848195818E199F09089709F07DC00894B7
:100E6000E11CF11CC601B7010E940730FC01C5015D
:100E700060810E940A310894E11CF11CC601B7018F
:100E80000E940730FC01C50160810E940A3108946C
:100E9000E11CF11CC601B7010E940730FC01C5012D
:100EA00060810E940A310894E11CF11CC601B7015F
:100EB0000E940730FC01C50160810E940A3108943C
:100EC000E11CF11CC601B7010E940730FC01C501FD
:100ED00060810E940A31C50160E070E00E94073025
:100EE000FC0183E890E161E070E040810E94D82637
:100EF000C50161E070E00E940730FC0183E890E1E9
:100F000062E070E040810E94D826C50162E070E096
:100F10000E940730FC0183E890E163E070E04081CB
:100F20000E94D826C50163E070E00E940730FC01F2
:100F300083E890E164E070E040810E94D826C5011A
:100F400064E070E00E940730FC0183E890E165E016
:100F500070E040810E94D8260E94930683EA91E1C6
:100F60006EE071E00E94C92D83EA91E164E470E1D2
:100F70000E94AA2FCE0101960E9407322E960FB62C
:100F8000F894DEBF0FBECDBFCF91DF911F910F91BF
:100F9000FF90EF90DF90CF90BF90AF9008950F93A8
:100FA0001F930BE410E1C80160E071E00E949A31E8
:100FB00083E890E16EE070E00E94D126682FC801BE
:100FC0000E940A311F910F910895CF93DF93EC0196
:100FD0006C817D8183EA91E14AE050E00E94C02E5D
:100FE0008C819D81059769F4CE0162E070E00E94DA
:100FF0000730FC0183E890E16EE070E040810E94E0
:10100000D8260E94CF0783EA91E167E171E00E9450
:10101000C92D83EA91E16BE470E10E94AA2FDF9170
:10102000CF910895EF92FF920F931F9382E5E82EE0
:1010300080E1F82EC70160E071E00E949A3103E878
:1010400010E1C80166E070E00E94D126682FC70158
:101050000E940A31C80167E070E00E94D126682F23
:10106000C7010E940A31C80168E070E00E94D126E1
:10107000682FC7010E940A31C80169E070E00E9430
:10108000D126682FC7010E940A311F910F91FF904E
:10109000EF900895CF93DF93EC016C817D8183EA1B
:1010A00091E14AE050E00E94C02E8C819D8108971A
:1010B000A1F5CE0162E070E00E940730FC0183E8F8
:1010C00090E166E070E040810E94D826CE0163E0A6
:1010D00070E00E940730FC0183E890E167E070E077
:1010E00040810E94D826CE0164E070E00E94073063
:1010F000FC0183E890E168E070E040810E94D8261E
:10110000CE0165E070E00E940730FC0183E890E1C9
:1011100069E070E040810E94D8260E94120883EAAC
:1011200091E16DE171E00E94C92D83EA91E162E5F0
:1011300070E10E94AA2FDF91CF91089580911E0641
:1011400061E00E94A429089580911E0660E00E943B
:10115000A429089583EA91E165EA75E00E94142EBE
:1011600068EE73E080E090E00E94FF270895AF9260
:10117000BF92CF92DF92EF92FF920F931F93CF9384
:10118000DF935C018B018091200661E00E94A4291D
:10119000C0E0D0E06801EE24D7FCE094FE2C13C040
:1011A0008091200660E00E94A429C701B6010E9438
:1011B000FF278091200661E00E94A429C701B601A3
:1011C0000E94FF272196AC16BD0654F7DF91CF9100
:1011D0001F910F91FF90EF90DF90CF90BF90AF9055
:1011E00008952F923F924F925F926F927F929F92BB
:1011F000AF92BF92CF92DF92EF92FF920F931F9325
:10120000DF93CF93CDB7DEB76C970FB6F894DEBF00
:101210000FBECDBF81E090E068EE73E00E94B7089A
:101220008E010F5F1F4FC80160E071E00E946631C0
:101230000E945E266B017C0138E0232E312C2C0E9F
:101240003D1E902E012F2FE0422E512C4C0E5D1E84
:1012500096E1692E712C6C0E7D1E85EC91E10E9449
:10126000E72B02970CF44BC0C10165EC71E10E94C1
:10127000EA2F892D902FB1010E94E531C1010E9412
:10128000073283EA91E1692D702F0E94AA2FC201D3
:1012900065E171E00E946631892D902FB2010E94B4
:1012A0005C305C01C2010E940732C30168E171E059
:1012B0000E946631892D902FB3010E945C30181670
:1012C00019066CF00E945E266C197D098E099F0933
:1012D0006F3171058105910510F410E001C011E036
:1012E000C3010E940732112329F41A141B0444F489
:1012F00011E006C083EA91E16BE473E010C010E0F6
:101300000E945E266C197D098E099F096F31710557
:101310008105910540F083EA91E16BE273E00E9460
:10132000142E00E004C0112309F497CF01E0CE0190
:1013300001960E940732802F6C960FB6F894DEBF9C
:101340000FBECDBFCF91DF911F910F91FF90EF9016
:10135000DF90CF90BF90AF909F907F906F905F9005
:101360004F903F902F90089504C083EA91E10E942E
:10137000182C83EA91E10E94E72B18161906ACF3AA
:1013800008950F931F9383EA91E16FE673E00E9443
:10139000142E05EC11E1C8010E94812BC80140E028
:1013A00056E960E070E00E94FA2A1F910F910895BB
:1013B00083EA91E168EB75E00E94142E85EC91E1DF
:1013C0000E94812B6CE271E080E090E00E94FF2798
:1013D000E0915910F0915A1009950895CF93DF9339
:1013E000EC01009781F58091200660E00E94A4291D
:1013F0002AC06091760770917707809120060E943D
:10140000C228209128063091290680917607909174
:101410007707820F931F9093770780937607009743
:1014200019F08F3F910549F488279927821B930B68
:10143000909329068093280621966EE170E080E063
:1014400090E00E94FF27C430D1059CF2DF91CF913C
:101450000895CF93DF93DB010D900020E9F71197FA
:10146000A61BB70BEC01E881F9810280F381E02D26
:10147000AD010995DF91CF910895CF92DF92EF9260
:10148000FF920F931F93DF93CF93CDB7DEB72797CC
:101490000FB6F894DEBF0FBECDBF6C0170E0E72E33
:1014A00071E0F72E8E010F5F1F4FC801B7010E9438
:1014B0006631C801B7010E949A31C801F601638103
:1014C0000E940A31C801F60164810E940A31C801F4
:1014D0000E942D30F62EE72EC8010E9407328F2D74
:1014E0009E2D27960FB6F894DEBF0FBECDBFCF91CD
:1014F000DF911F910F91FF90EF90DF90CF900895B3
:10150000CF92DF92EF92FF920F931F93DF93CF93CF
:10151000CDB7DEB727970FB6F894DEBF0FBECDBFAD
:101520006C01E0E0EE2EE1E0FE2E8E010F5F1F4F1A
:10153000C801B7010E946631C801B7010E949A3103
:10154000C801F60160810E940A31C801F60161817B
:101550000E940A31C8010E942D30F62EE72EC801E4
:101560000E9407328F2D9E2D27960FB6F894DEBF6E
:101570000FBECDBFCF91DF911F910F91FF90EF90E4
:10158000DF90CF9008952F923F924F925F926F928B
:101590007F928F929F92AF92BF92CF92DF92EF9203
:1015A000FF920F931F93DF93CF93CDB7DEB7AE9724
:1015B0000FB6F894DEBF0FBECDBFCE01019660E03E
:1015C00071E00E946631A8E0EA2EF12CEC0EFD1EBF
:1015D000C70160E071E00E9466318E01015F1F4F1C
:1015E000C80160E071E00E946631CE01019660E0C2
:1015F00071E00E949A31109243101092421083EAD7
:1016000091E16AEE72E00E94142E0E945E266BA7A2
:101610007CA78DA79EA7AA24BB246801F4E22F2EE5
:10162000312C2C0E3D1E0E945E262B013C0185ECC8
:1016300091E16DE371E00E94642FC60160E071E00A
:101640000E949A319BC00E945E2664197509860922
:101650009709663071058105910508F0F8C085ECA1
:1016600091E10E94E72B181619060CF087C0CE01F5
:10167000469665EC71E10E94EA2FC701BE016A5EE1
:101680007F4F0E94E531CE0146960E940732CE017F
:101690004D966BE471E00E946631C701BE01635E46
:1016A0007F4F0E945C308C01CE014D960E94073224
:1016B000101611060CF062C0C60160E071E00E94D5
:1016C0009A31C10162E571E00E946631C701B10142
:1016D0000E945C308C01C1010E9407321016110675
:1016E0000CF5B801665F7F4FC7010E940730FC010F
:1016F000C60160810E940A31B801655F7F4FC70152
:101700000E940730FC01C60160810E940A31B801C5
:10171000645F7F4FC7010E940730FC01C6016081F2
:101720000E940A31C6010E942D305B011616170671
:101730002CF5035F1F4F4B01800E911E1CC0C7018B
:10174000B8010E940730FC0180818D3091F0C70103
:10175000B8010E940730FC0180818A3051F0C70136
:10176000B8010E940730FC01CE01019660810E9401
:101770000A310F5F1F4F801691060CF7C60160E01B
:1017800071E00E946130882309F05DCF10E01A14E7
:101790001B040CF011E00E945E262BA53CA54DA574
:1017A0005EA5621B730B840B950B6B357105810570
:1017B000910518F0112321F44AC0112309F433CF05
:1017C000E8E7F7E0119230E1E234F307D9F710923D
:1017D000431010924210EE24FF246E010894C11CA5
:1017E000D11C16C0C601B7010E940730FC01085881
:1017F000184F8081F80180838091421090914310AE
:10180000019690934310809342100894E11CF11CC0
:101810008D819E810091421010914310E816F906C7
:1018200008F30858184FF8011082C60160E071E013
:101830000E949A3183EA91E168ED72E00E94142ED1
:101840008091200660E00E94A42911E001C010E010
:10185000CE010F960E940732CE0108960E940732F1
:10186000CE0101960E940732812FAE960FB6F894F2
:10187000DEBF0FBECDBFCF91DF911F910F91FF90C3
:10188000EF90DF90CF90BF90AF909F908F907F9020
:101890006F905F904F903F902F90089585EC91E16D
:1018A0000E94412C04C085EC91E10E94182C85EC2B
:1018B00091E10E94E72B892BB1F785EC91E10E9421
:1018C000412C0895CF93DF93EC016CE571E00E9409
:1018D0009C05009719F421E030E03EC0CE0163E69C
:1018E00071E00E949C05009719F422E030E034C0BA
:1018F000CE016AE671E00E949C05009719F423E08E
:1019000030E02AC0CE0162E771E00E949C0500979A
:1019100019F424E030E020C0CE016CE771E00E94B1
:101920009C05009719F425E030E016C0CE0165E86B
:1019300071E00E949C05009719F426E030E00CC08D
:10194000CE016CE871E00E949C05009719F427E035
:1019500030E002C020E030E0C901DF91CF9108956E
:101960006F927F928F929F92AF92BF92CF92DF92AF
:10197000EF92FF920F931F93CF93DF938C0181E03F
:1019800090E068EE73E00E94B70883EA91E164EAB0
:1019900073E00E94142E81E690E1B8010E943C237E
:1019A0003C01009709F432C1EEE6F6E0108216829F
:1019B00015821282118214821382379647E0E03436
:1019C000F407A1F7109241071092400781E690E1D9
:1019D000B30145E951E00E94AD1CFC01009709F4F8
:1019E000A6C0C681D78181E690E1BF010E94401F59
:1019F000F82EE92E83EA91E16F2D7E2D0E94642F4F
:101A0000EF2DFE2DDF010D900020E9F78D01015033
:101A100010400E1B1F0B83EA91E16AE971E00E94FE
:101A2000612F83EA91E1B8014AE050E00E94422F21
:101A30008F2D9E2D0E940E0481E090E068EE73E0F1
:101A40000E94B70871C081E690E1BE0147EA51E00B
:101A50000E94AD1C4C0181E690E1BE014BEA51E0D1
:101A60000E94AD1C5C0181E690E1BE014FEA51E0AD
:101A70000E94AD1C8C0181E690E1BE0142EB51E079
:101A80000E94AD1C6C01E0904007F0904107F80106
:101A9000818592850E943B05870123E0000F111F7D
:101AA0002A95E1F70E191F090259194FD80114960A
:101AB0009C938E931397F501818592850E943B0537
:101AC000D80112969C938E931197F401818592858B
:101AD0000E94620CD8018C93F601818592850E9448
:101AE000800AD80115968C93009140071091410708
:101AF000F601818592850E943D0AF80193E0EE0F80
:101B0000FF1F9A95E1F7E01BF10BE259F94F86832D
:101B100080914007909141070196909341078093EF
:101B200040070A80DB81C02D209709F08CCF81E629
:101B300090E1B30147EB51E00E94AD1C7C0181E6CE
:101B400090E1B3014DEB51E00E94AD1CEC0181E648
:101B500090E1B30144EC51E00E94AD1C8C01E11412
:101B6000F104A9F0D70119968C91882341F081E006
:101B70008093520783EA91E16DE973E006C0109209
:101B8000520783EA91E164E973E00E94142E2097E2
:101B9000A1F083EA91E16FE873E00E94C92D6985A5
:101BA0007A8583EA91E10E94642F89859A850E9453
:101BB0003B0590935107809350070115110531F1B2
:101BC00083EA91E168E873E00E94C92DF80161851C
:101BD000728583EA91E10E94642FD80119968D9154
:101BE0009C911A970E943B052FEF30E0FC01E29F89
:101BF000C001E39F900DF29F900D112464E670E008
:101C00000E94AB35709327066093260681E690E12B
:101C1000B3010E94C81C83EA91E16AE773E00E9465
:101C2000142EDF91CF911F910F91FF90EF90DF90D5
:101C3000CF90BF90AF909F908F907F906F900895BE
:101C4000EF92FF920F931F93809124060E94A02889
:101C50007C0103EA11E1C80168ED75E00E94C92D1D
:101C6000C801B7014AE050E00E94422F81E01F9175
:101C70000F91FF90EF9008950F931F930E945E269F
:101C80000E942725082F0E945E260E943325182FC8
:101C90000E945E260E942D25982FA0914007B091AA
:101CA000410740915707509158076091590770912B
:101CB0005A07EEE6F6E020E030E012C0808180179F
:101CC00061F48581181748F0811719F486819817F7
:101CD00020F063817481418152812F5F3F4F37969D
:101CE0002A173B075CF350935807409357077093AC
:101CF0005A07609359071F910F9108950F931F93EF
:101D000003EA11E1C80140E855E260E070E00E949A
:101D1000FA2AC80169EC71E00E94290A1092410771
:101D20001092400710924B0710924A0780912006AC
:101D300061E00E9440298091200661E00E94A42970
:101D400080911A0661E00E94402980911A0661E0A4
:101D50000E94A42980911C0661E00E944029809184
:101D60001E0661E00E9440290E9493060E9412080C
:101D70000E94CF078091220660E00E944029809156
:101D800022066AEA78E041E050E00E94E4261F91D2
:101D90000F9108951F93DF93CF93CDB7DEB72797A9
:101DA0000FB6F894DEBF0FBECDBFCE01019660E046
:101DB00071E00E9466310E94A40885EC91E140E840
:101DC00055E260E070E00E94FA2A0E949E0868EEE8
:101DD00073E080E090E00E94FF270E944E0C85ECAB
:101DE00091E163ED71E00E94612F83EA91E10E942D
:101DF000E72B1816190684F483EA91E10E94182C47
:101E00008A3211F411E009C0682F772767FD7095B9
:101E100085EC91E10E94512C10E085EC91E10E944B
:101E2000E72B181619069CF019C085EC91E10E9469
:101E3000182C682F772767FD709583EA91E10E943F
:101E4000512C65E070E080E090E00E94FF2785EC77
:101E500091E10E94E72B181619063CF3112329F291
:101E60000E94A4080E944E0C85EC91E140E056E9E6
:101E700060E070E00E94FA2A0E944E0CCE010196AA
:101E80000E94073227960FB6F894DEBF0FBECDBF73
:101E9000CF91DF911F9108956F927F928F929F92C1
:101EA000AF92BF92CF92DF92FF920F931F93DF9377
:101EB000CF93CDB7DEB7A3970FB6F894DEBF0FBEB2
:101EC000CDBF8E010F5F1F4FC80160E071E00E941F
:101ED00066318091200661E00E94A42968E0662EA8
:101EE000712C6C0E7D1EF02E012F5DE1852E912C44
:101EF0008C0E9D1E4FE0A42EB12CAC0EBD1E36E103
:101F0000C32ED12CCC0EDD1E83EA91E10E94E72B7B
:101F100018161906CCF7C30163EA71E10E94EA2F93
:101F20008F2D902FB3010E94E531C3010E9407322B
:101F30008F2D902F60E070E00E940730FC01E0815F
:101F4000E23709F4A9C0E33744F4ED3609F442C09E
:101F5000E03759F0E436C1F62FC0E43781F0E437BA
:101F60000CF444C0E83781F680C0C5016F2D702F96
:101F70000E94FC31C5010E944A08C50126C083EABF
:101F800091E16CE971E00E94142E83EA91E161E92C
:101F900071E00E94142E0E94B4090E94CA0E0E9491
:101FA000B40983EA91E16FE771E00E94142E83EA9D
:101FB00091E16CE671E056C0C6016F2D702F0E9452
:101FC000FC31C6010E94E206C6010E9407320E944F
:101FD000B4099ACFC4016F2D702F0E94FC31C40147
:101FE0000E94E507C4010E9407328ECF83EA91E187
:101FF00069E571E00E94C92D83EA91E16FE276E024
:102000000E94642F83EA91E169ED71E00E94612FE3
:1020100083EA91E164E470E10E94AA2F83EA91E1EE
:102020006CEE71E00E94612F83EA91E162E570E15C
:102030000E94AA2F83EA91E16FEF71E00E94612F65
:1020400083EA91E16BE470E10E94AA2F83EA91E1B7
:1020500062E571E00E94142E0E94B40983EA91E1C6
:1020600062E371E00E94142E4FCF83EA91E163E2B4
:1020700071E00E94142E6EE170E080E090E00E941A
:10208000FF278091200660E00E94A429E09159106A
:10209000F0915A10099538CF8091200660E00E9497
:1020A000A4290E94B409CE0101960E940732A3968A
:1020B0000FB6F894DEBF0FBECDBFCF91DF911F9159
:1020C0000F91FF90DF90CF90BF90AF909F908F9037
:1020D0007F906F900895EF92FF920F931F9383EA82
:1020E00091E161E574E00E94142E83EA91E163E4DA
:1020F00074E00E94C92D609126067091270683EA3C
:1021000091E14AE050E00E94422F83EA91E16CE3C2
:1021100074E00E94C92D0E945E260E943325BC01F6
:1021200083EA91E14AE050E00E942F2F83EA91E197
:102130006AE374E00E94C92D0E945E260E942D254C
:10214000BC0183EA91E14AE050E00E94422F83EA19
:1021500091E161E374E00E94C92D6091590770918B
:102160005A0783EA91E14AE050E00E94C02E83EAD8
:1021700091E167E274E00E94C92D60915707709168
:10218000580783EA91E14AE050E00E94C02E83EABA
:1021900091E166E174E00E94C92D60914007709161
:1021A000410783EA91E14AE050E00E94422F81E03A
:1021B00090E00E94EE090E943C0E0E94D51883EA2E
:1021C00091E10E94E72B18161906F4F483EA91E1D5
:1021D0000E94182CCF97C1F4609174077091750715
:1021E00080911C060E94C22810925B0783EA91E14D
:1021F00061E074E00E94142E83EA91E162E172E0F2
:102200000E94642F0E944C0FE0905007F0905107FD
:1022100000E010E080914C0790914D07A0914E078F
:10222000B0914F07E80EF91E0A1F1B1F0E945E2681
:10223000E616F7060807190708F0B9CF83EA91E117
:102240006CEE73E00E94142E609174077091750714
:1022500080911C060E94C22810925B070E94CB133B
:102260000E946C1688E797E00E94B00C83EA91E127
:102270006EED73E00E94C92D6091260670912706CD
:1022800083EA91E14AE050E00E94422F83EA91E123
:1022900067ED73E00E94C92D0E945E260E943325DF
:1022A000BC0183EA91E14AE050E00E942F2F83EACB
:1022B00091E165ED73E00E94C92D0E945E260E94A7
:1022C0002D25BC0183EA91E14AE050E00E94422FB3
:1022D00083EA91E16CEC73E00E94C92D609159078B
:1022E00070915A0783EA91E14AE050E00E94C02EC3
:1022F00083EA91E162EC73E00E94C92D6091570777
:102300007091580783EA91E14AE050E00E94C02EA4
:1023100083EA91E161EB73E00E94C92D609140076F
:102320007091410783EA91E14AE050E00E94422F18
:1023300080915207882309F43ACF0E94D80937CFF9
:102340009F92AF92BF92CF92DF92EF92FF920F9344
:102350001F93CF93DF93EC0183EA91E16BE472E08A
:102360000E94C92D83EA91E1BE014AE050E00E943B
:10237000422FC130D105D1F48091140690911506F9
:1023800005970CF04BC083EA91E16DE372E00E9487
:10239000C92D609114067091150683EA91E14AE017
:1023A00050E00E94422F0E94200EE3C1C230D105AE
:1023B000C9F4809116069091170603977CF583EA7D
:1023C00091E160E372E00E94C92D60911606709160
:1023D000170683EA91E14AE050E00E94422F0E94F2
:1023E000CB13C7C1C330D10589F580915C079091AB
:1023F0005D0704979CF483EA91E163E272E00E9436
:10240000C92D60915C0770915D0783EA91E14AE014
:1024100050E00E94422F0E946C16ABC183EA91E10A
:1024200061EF71E00E94C92D83EA91E1BE014AE0AB
:1024300050E00E94422F85EC91E16CE372E00E9433
:10244000642F0E94F1088823A1F527C0C430D1056C
:1024500009F08FC1809118069091190603970CF02E
:10246000BBC083EA91E166E172E00E94C92D6091F0
:1024700018067091190683EA91E14AE050E00E9443
:10248000422F809118069091190601969093190693
:10249000809318060E9480176CC168E873E180E0A1
:1024A00090E00E94FF2785EC91E161E472E00E94D8
:1024B000642F85EC91E16CE472E00E94642F0E942D
:1024C000F108882361F468E873E180E090E00E94FD
:1024D000FF2785EC91E161E472E00E94642F85ECB6
:1024E00091E166E672E00E94642F0E94F108882361
:1024F00061F468E873E180E090E00E94FF2785ECDA
:1025000091E161E472E00E94642F85EC91E169E75A
:1025100072E00E94642F0E94F108882361F468E849
:1025200073E180E090E00E94FF2785EC91E161E497
:1025300072E00E94642F85EC91E16FE872E00E94E6
:10254000290A85EC91E164E470E10E94772F85EC23
:1025500091E165ED72E00E94612F85EC91E1BE0191
:102560004AE050E00E942F2F85EC91E167ED72E088
:102570000E94642F0E94F108882361F468E873E1E7
:1025800080E090E00E94FF2785EC91E161E472E039
:102590000E94642F85EC91E169ED72E00E94642F46
:1025A0000E94F108882361F468E873E180E090E01C
:1025B0000E94FF2785EC91E161E472E00E94642FA4
:1025C00068E873E180E090E00E94FF2785EC91E1EC
:1025D00061E472E00E94642F0E945E265B016C0140
:1025E0000E945E267B018C0181E090E090931506AD
:1025F00080931406909317068093160690935D07B8
:1026000080935C07909319068093180683EA91E102
:1026100064EE72E00E94642F992493949DC083EA33
:1026200091E162EE71E00E94142E85EC91E10E942E
:10263000812B6CE271E080E090E00E94FF27E09146
:102640005910F0915A10099580915E078823B9F0CE
:1026500080915F07813099F483EA91E16BEA71E040
:102660000E94142E0E945E2660934C0770934D07C3
:1026700080934E0790934F070E946B106DC0CE0160
:1026800064E670E00E94B70883EA91E165EF72E0CA
:102690000E94612F83EA91E1BE014AE050E00E946E
:1026A000422F83EA91E160E073E00E94612F0E9473
:1026B0005E26AB01BC014A195B096C097D0983EAFE
:1026C00091E12AE030E00E949B2E68E873E180E00F
:1026D00090E00E94FF2780915B078823E1F40E942D
:1026E0005E266E197F09800B910B6135710581059E
:1026F000910590F183EA91E16FE073E00E94642F0D
:10270000609126067091270680911C060E94C228BF
:1027100090925B071DC08130F9F40E945E266E190D
:102720007F09800B910B6531710581059105A0F042
:1027300083EA91E16EE273E00E94642F6091740776
:102740007091750780911C060E94C22810925B0749
:102750000E945E267B018C010E945E266A197B091D
:102760008C099D09695077408040904008F057CF10
:102770006BCF83EA91E16DE473E00E94642FDF91F7
:10278000CF911F910F91FF90EF90DF90CF90BF906E
:10279000AF909F9008952F923F924F925F926F92C9
:1027A0007F928F929F92AF92BF92CF92DF92EF92E1
:1027B000FF920F931F93DF93CF93CDB7DEB7A89708
:1027C0000FB6F894DEBF0FBECDBF83EA91E160E69D
:1027D00073E00E94642F83EA91E161E773E00E9455
:1027E000612F609116067091170683EA91E14AE025
:1027F00050E00E94422FCE01019660E071E00E94FD
:102800006631CE01089660E071E00E94663185EC89
:1028100091E16CE372E00E94642F0E94F10888232A
:1028200069F4809116069091170601969093170609
:102830008093160682E090E00E94A01185EC91E161
:102840006CE472E00E94642F0E94F108882369F40E
:102850008091160690911706019690931706809323
:10286000160682E090E00E94A01185EC91E166E6F8
:1028700072E00E94642F0E94F108882369F480911D
:1028800016069091170601969093170680931606E8
:1028900082E090E00E94A01185EC91E169E772E08E
:1028A0000E94642F0E94F108882369F48091160623
:1028B000909117060196909317068093160682E072
:1028C00090E00E94A01185EC91E16EE773E00E9418
:1028D000290A85EC91E164E470E10E94772F85EC90
:1028E00091E167ED72E00E94642F0E94F108882355
:1028F00069F4809116069091170601969093170639
:102900008093160682E090E00E94A01185EC91E190
:1029100069ED72E00E94642F0E94F108882369F437
:102920008091160690911706019690931706809352
:10293000160682E090E00E94A01168E873E180E052
:1029400090E00E94FF2785EC91E16DE371E00E9429
:10295000642F68EE73E080E090E00E94FF2785EC32
:1029600091E10E94E72B181619060CF088C18E0120
:10297000015F1F4FC80165EC71E10E94EA2F7E01E3
:102980000894E11CF11CC701B8010E94E531C8019F
:102990000E94073283EA91E16FE972E00E94C92D3B
:1029A00083EA91E1B7010E94AA2F8E010A5E1F4FB0
:1029B000C80161EC73E00E946631C701B80141E1D2
:1029C00050E00E948430F82EC8010E940732FF2098
:1029D000D1F483EA91E161E872E00E94142E85EC63
:1029E00091E161E472E00E94642F8091160690915B
:1029F00017060196909317068093160682E090E0E2
:102A00000E94A01109C081E080935E0783EA91E1F2
:102A100068E672E00E94142E8E01085F1F4FC80105
:102A200060E071E00E949A317E010894E11CF11C83
:102A3000C70161E170E00E940730FC01C8016081BC
:102A40000E940A31C70162E170E00E940730FC0178
:102A5000C80160810E940A31C70163E170E00E94F1
:102A60000730FC01C80160810E940A31C70164E19E
:102A700070E00E940730FC01C80160810E940A31A9
:102A8000C8010E942D306DA37EA38FA398A7C80113
:102A900060E071E00E949A31C70166E170E00E9437
:102AA0000730FC01C80160810E940A31C70167E15B
:102AB00070E00E940730FC01C80160810E940A3169
:102AC000C8010E942D3069A37AA38BA39CA3C801DF
:102AD00060E071E00E949A31C70169E170E00E94F4
:102AE0000730FC01C80160810E940A31C7016AE118
:102AF00070E00E940730FC01C80160810E940A3129
:102B0000C8010E942D306D8F7E8F8F8F98A3C801D2
:102B100060E071E00E949A31C7016CE170E00E94B0
:102B20000730FC01C80160810E940A31C7016DE1D4
:102B300070E00E940730FC01C80160810E940A31E8
:102B4000C8010E942D301B012C01C80160E071E01A
:102B50000E949A31C7016FE170E00E940730FC01CA
:102B6000C80160810E940A31C70160E270E00E94E2
:102B70000730FC01C80160810E940A31C8010E942F
:102B80002D303B014C01C80160E071E00E949A3198
:102B9000C70162E270E00E940730FC01C801608159
:102BA0000E940A31C70163E270E00E940730FC0115
:102BB000C80160810E940A31C8010E942D305B016A
:102BC0006C01C101B301A5012D8D3E8D09A11AA192
:102BD000EDA0FEA00E943D2683EA91E164EC73E043
:102BE0000E94612F83EA91E1B1014AE050E00E9426
:102BF0002F2F83EA91E16BEC73E00E94612F83EA4F
:102C000091E1B3014AE050E00E942F2F83EA91E165
:102C10006BEC73E00E94612F83EA91E1B5014AE019
:102C200050E00E94422F83EA91E16DEC73E00E9434
:102C3000612F83EA91E16D8D7E8D4AE050E00E9424
:102C40002F2F83EA91E165ED72E00E94612F83EA04
:102C500091E169A17AA14AE050E00E942F2F83EA16
:102C600091E165ED72E00E94612F83EA91E16DA12F
:102C70007EA14AE050E00E94422F0E945E2685EC31
:102C800091E161E472E00E94642F83EA91E165EDD5
:102C900073E00E94642FCE0108960E940732CE0195
:102CA00001960E940732A8960FB6F894DEBF0FBEB9
:102CB000CDBFCF91DF911F910F91FF90EF90DF90EB
:102CC000CF90BF90AF909F908F907F906F905F90CC
:102CD0004F903F902F9008950F931F93DF93CF93C2
:102CE000CDB7DEB727970FB6F894DEBF0FBECDBFC6
:102CF00083EA91E16CEB72E00E94C92D60915C0760
:102D000070915D0783EA91E14AE050E00E94422F12
:102D100085EC91E16CE372E00E94642F0E94F1085F
:102D2000882369F480915C0790915D0701969093E8
:102D30005D0780935C0783E090E00E94A01185EC22
:102D400091E16CE472E00E94642F0E94F1088823F4
:102D500069F480915C0790915D07019690935D07FF
:102D600080935C0783E090E00E94A01185EC91E1E4
:102D700066E672E00E94642F0E94F108882369F4DD
:102D800080915C0790915D07019690935D07809319
:102D90005C0783E090E00E94A01185EC91E169E777
:102DA00072E00E94642F0E94F108882369F48091E8
:102DB0005C0790915D07019690935D0780935C0797
:102DC00083E090E00E94A0118E010F5F1F4FC801A9
:102DD00061EF73E00E948031C80164E470E10E94F9
:102DE0002F31BC0183EA91E10E94AA2FC8010E9401
:102DF0000D3285EC91E16CEF73E00E94290A85ECBD
:102E000091E164E470E10E94772F85EC91E167ED38
:102E100072E00E94642F0E94F108882369F4809177
:102E20005C0790915D07019690935D0780935C0726
:102E300083E090E00E94A01185EC91E169ED72E0E1
:102E40000E94642F0E94F108882369F480915C0736
:102E500090915D07019690935D0780935C0783E0F6
:102E600090E00E94A01168E873E180E090E00E9489
:102E7000FF270E94C30A8823F9F483EA91E163E4FF
:102E800074E00E94642F85EC91E161E472E00E949D
:102E9000642F6EE170E080E090E00E94FF27809157
:102EA0005C0790915D07019690935D0780935C07A6
:102EB00083E090E00E94A01185EC91E161E472E072
:102EC0000E94642F0E945E2660934C0770934D070A
:102ED00080934E0790934F0781E080935F0783EACA
:102EE00091E16CEA72E00E94142E27960FB6F894D6
:102EF000DEBF0FBECDBFCF91DF911F910F9108951F
:102F000083EA91E16AE173E00E94142E83EA91E181
:102F100064E674E00E94612F6091180670911906B2
:102F200083EA91E14AE050E00E94422F85EC91E172
:102F30006CE372E00E94642F0E94F108882399F4E8
:102F400085EC91E161E472E00E94642F80911806A3
:102F5000909119060196909319068093180684E0C3
:102F600090E00E94A01185EC91E161E774E00E947D
:102F7000612F0E94F108882369F4809118069091CE
:102F800019060196909319068093180684E090E044
:102F90000E94A01182E590E161E071E00E94613041
:102FA000882309F03FC08BE490E16DE774E00E9454
:102FB00061308823B9F58BE490E16FE774E00E94FB
:102FC0006130882379F585EC91E161E874E00E9435
:102FD000612F85EC91E162E570E10E94772F85EC2D
:102FE00091E167ED72E00E94612F83EA91E16AE866
:102FF00074E00E94612F83EA91E162E570E10E9432
:10300000AA2F0E94F108882369F4809118069091F4
:1030100019060196909319068093180684E090E0B3
:103020000E94A01185EC91E16FE874E00E94642F8A
:103030000E94F108882369F480911806909119067E
:103040000196909319068093180684E090E00E9400
:10305000A01185EC91E16CEA74E00E94642F0E945B
:10306000F108882369F48091180690911906019659
:10307000909319068093180684E090E00E94A011B6
:1030800085EC91E165EC74E00E94642F0E94F108E8
:10309000882369F4809118069091190601969093FF
:1030A00019068093180684E090E00E94A01185EC38
:1030B00091E160EE74E00E94642F0E94F108882381
:1030C00069F480911806909119060196909319065B
:1030D0008093180684E090E00E94A01183EA91E1B9
:1030E00064E173E00E94C92D83EA91E16BE470E131
:1030F0000E94AA2F8BE490E16AEF74E00E94613095
:10310000882329F085EC91E16CEF74E033C08BE407
:1031100090E167E175E00E946130882329F085EC39
:1031200091E169E175E026C08BE490E162E475E02D
:103130000E946130882329F085EC91E164E475E018
:1031400019C08BE490E16DE774E00E946130882340
:1031500029F085EC91E168E675E00CC08BE490E124
:103160006FE774E00E946130882331F085EC91E1D3
:103170006BE875E00E94642F0E94F108882369F4CF
:1031800080911806909119060196909319068093E4
:10319000180684E090E00E94A01168EE73E080E0E1
:1031A00090E00E94FF2781E00895EF92FF920F9335
:1031B0001F93DF93CF93CDB7DEB72E970FB6F8945A
:1031C000DEBF0FBECDBF80915B07882309F4E6C048
:1031D0008091600790916107892B09F043C00E949C
:1031E0005E26AB01BC018091620790916307A091BC
:1031F0006407B0916507481B590B6A0B7B0B409322
:1032000062075093630760936407709365078E01AC
:103210000F5F1F4FC8012AE00E94B3318DE697E08F
:10322000B8010E94E531C8010E94073283EA91E1AA
:1032300069EA75E00E94612F83EA91E16DE677E02B
:103240000E94AA2F0E945E26609362077093630714
:10325000809364079093650781E090E09093610705
:10326000809360070E94200E882341F583EA91E154
:1032700067EC75E00E94142E80911406909115065B
:10328000019690931506809314068091200660E0C5
:103290000E94A42981E090E064E670E00E94B708F3
:1032A0000E945E26609353077093540780935507DE
:1032B0009093560781E090E00E94A011E09059079A
:1032C000F0905A0700E010E0809153079091540766
:1032D000A0915507B0915607E80EF91E0A1F1B1F53
:1032E0000E945E26E616F7060807190708F08AC04E
:1032F000609174077091750780911C060E94C22826
:1033000010925B070E945E266093530770935407E8
:1033100080935507909356070E945E26AB01BC012F
:103320008091620790916307A0916407B09165074F
:10333000481B590B6A0B7B0B409362075093630742
:1033400060936407709365078E01085F1F4FC80183
:103350002AE00E94B33186E697E0B8010E94E53189
:10336000C8010E94073283EA91E169EB75E00E948F
:10337000612F83EA91E166E677E00E94AA2F0E941E
:103380005E2660936207709363078093640790934F
:103390006507109261071092600734C0E0905707EC
:1033A000F090580700E010E0809153079091540787
:1033B000A0915507B0915607E80EF91E0A1F1B1F72
:1033C0000E945E26E616F70608071907D8F48091D2
:1033D000590790915A07892BA9F0609126067091A0
:1033E000270680911C060E94C22881E080935B071B
:1033F0000E945E266093530770935407809355078D
:10340000909356072E960FB6F894DEBF0FBECDBF31
:10341000CF91DF911F910F91FF90EF900895EF9260
:10342000FF920F931F9383EA91E16DE975E00E948B
:10343000142E609174077091750780911C060E948C
:10344000C22810925B0780911E0660E00E94A429AA
:1034500060ED77E080E090E00E94FF2783EA91E151
:103460006CE875E00E94142E80911E0661E00E94B7
:10347000A42960E27EE480E090E00E94FF2783EAD6
:1034800091E169E775E00E94142E83EA91E167E714
:1034900075E00E94142E68E873E180E090E00E94DD
:1034A000FF2783EA91E10E94E72B18161906A4F47E
:1034B00083EA91E10E94182CCF9771F483EA91E19D
:1034C00062E675E00E94142E83EA91E169EC75E0F2
:1034D0000E94642F0E944C0F0E94C10981E090E07D
:1034E00068EE73E00E94B7080E94801781E090E0C8
:1034F00068EE73E00E94B7080E94CB1381E090E071
:1035000068EE73E00E94B70883EA91E160E071E041
:103510000E94642F83EA91E167E475E00E94142E13
:1035200083EA91E16BE275E00E94142E83EA91E157
:1035300069E175E00E94C92D83EA91E16FE276E0CE
:103540000E94642F83EA91E16EEF74E00E94142ED2
:1035500083EA91E160E071E00E94642F0E946C16A2
:1035600088E797E00E94B00C0E943C0E83EA91E14C
:1035700060EF74E00E94C92D6091260670912706C5
:1035800083EA91E14AE050E00E94422F83EA91E110
:1035900067EE74E00E94C92D6091590770915A0737
:1035A00083EA91E14AE050E00E94C02E83EA91E173
:1035B0006DED74E00E94C92D609157077091580716
:1035C00083EA91E14AE050E00E94C02E83EA91E153
:1035D00066ED74E00E94C92D0E945E260E9433258C
:1035E000BC0183EA91E14AE050E00E942F2F83EA78
:1035F00091E164ED74E00E94C92D0E945E260E9454
:103600002D25BC0183EA91E14AE050E00E94422F5F
:1036100083EA91E163EC74E00E94C92D6091400758
:103620007091410783EA91E14AE050E00E94422F05
:1036300081E090E00E94EE090E943C0E0E94D518A5
:1036400083EA91E10E94E72B18161906F4F483EA45
:1036500091E10E94182CCF97C1F46091740770918A
:10366000750780911C060E94C22810925B0783EAAE
:1036700091E16EEA74E00E94142E83EA91E162E126
:1036800072E00E94642F0E944C0FE0905007F0906F
:10369000510700E010E080914C0790914D07A091F8
:1036A0004E07B0914F07E80EF91E0A1F1B1F0E941C
:1036B0005E26E616F7060807190708F0B9CF83EA71
:1036C00091E169E974E00E94142E60917407709191
:1036D000750780911C060E94C22810925B070E9409
:1036E000CB130E946C1688E797E00E94B00C0E94F2
:1036F0003C0E83EA91E16BE874E00E94C92D609171
:1037000026067091270683EA91E14AE050E00E9484
:10371000422F83EA91E164E874E00E94C92D0E947F
:103720005E260E943325BC0183EA91E14AE050E025
:103730000E942F2F83EA91E162E874E00E94C92D74
:103740000E945E260E942D25BC0183EA91E14AE099
:1037500050E00E94422F83EA91E169E774E00E9401
:10376000C92D6091590770915A0783EA91E14AE0A7
:1037700050E00E94C02E83EA91E16FE674E00E945F
:10378000C92D609157077091580783EA91E14AE08B
:1037900050E00E94C02E83EA91E16EE574E00E9441
:1037A000C92D609140077091410783EA91E14AE099
:1037B00050E00E94422F80915207882309F438CFAD
:1037C0000E94D80935CFFC0184819581089577271F
:1037D00067FD7095FC01778366830895CF92DF9231
:1037E000EF92FF920F931F93CF93DF937C016B01B6
:1037F0008A01C0E0D0E011C0D701ED91FC910680B4
:10380000F781E02DC7010995BFEF8F3F9B0749F076
:10381000F601EC0FFD1F80832196C017D10760F3DE
:10382000E801CE01DF91CF911F910F91FF90EF90B2
:10383000DF90CF900895FC01868197818F5F9F4F25
:1038400029F420E084859585892B09F021E0822FD9
:103850000895DC0116964D915C9117978FEF4F3FBD
:10386000580739F08FEF9FEF17969C938E9316971A
:103870001CC01896ED91FC9119973097B1F01C96E9
:103880002D913C911D972115310579F08191199663
:10389000FC93EE931897215030401D963C932E9345
:1038A0001C97482F552747FD5095CA010895CF937F
:1038B000DF93DC011A96CD91DC911B972097C9F01C
:1038C0001E968D919C911F97029798F0FE0161932F
:1038D0001B96FC93EE931A971E968D919C911F97C1
:1038E00001971F969C938E931E97198221E030E0DA
:1038F00002C020E030E0C901DF91CF910895CF935D
:10390000DF93EC01E881F9810680F781E02DCE019B
:103910000995BC018FEF6F3F780731F0E881F9819D
:10392000613271058CF306C02FEF3FEFC901DF91C3
:10393000CF9108950284F385E02DCE01099520E012
:1039400030E0F4CF0F9382E690E160E040E020E0C9
:1039500000E00E94332D0F9108950F931F93CF9392
:10396000DF93FB018A01C681D78103C00A80DB8116
:10397000C02D209739F088819981B8010E9489056E
:10398000892BA1F7CE01DF91CF911F910F9108955F
:10399000EF92FF920F931F93CF93DF938C01EB0174
:1039A00023C0FA80EB80888587FD08C06E817F8107
:1039B0006115710519F0C8010E94C81C8885853001
:1039C00031F489859A85009711F00E940E04888150
:1039D0009981009711F00E940E04CE010E940E04FE
:1039E0008F2D9E2D9C01E9012097D9F6DF91CF9173
:1039F0001F910F91FF90EF9008950F931F93CF9316
:103A0000DF93182F092FEB0167EF75E00E94612FFC
:103A1000209709F048C04BC0603238F0623229F07C
:103A20006C3519F0812F902F3BC0812F902F6CE5C2
:103A30000E94EC2D88818C3021F18D303CF489304E
:103A400061F18A3011F1883069F517C0823269F06E
:103A500083321CF48D3031F51CC08F3251F08C351F
:103A600009F5812F902F6CE51BC0812F902F62E20A
:103A700017C0812F902F6FE213C0812F902F62E625
:103A80000FC0812F902F66E60BC0812F902F6EE61E
:103A900007C0812F902F62E703C0812F902F64E72A
:103AA0000E94EC2D21966881662309F0B5CF812F05
:103AB000902F62E20E94EC2D80E090E0DF91CF91A8
:103AC0001F910F910895EF92FF920F931F93CF9341
:103AD000DF938C017B01DC01ED91FC910680F78185
:103AE000E02D0995829709F05BC085E0F70180879A
:103AF0000E94DD23EC01009709F043C051C08C35D2
:103B00009105E1F5D801ED91FC910680F781E02D5A
:103B1000C8010995BFEF8F3F9B0709F43EC0863669
:103B2000910529F18736910584F48C359105B9F01A
:103B30008D35910534F48232910599F08F9709F50E
:103B400012C082369105E9F410C08237910599F0D0
:103B50008437910591F08E36910599F40AC08CE571
:103B60000DC082E20BC08FE209C088E007C08CE084
:103B700005C08AE003C08DE001C089E0BE010E945B
:103B80007723D801ED91FC910680F781E02DC801E3
:103B90000995BFEF8F3F9B0731F4CE010E9495231B
:103BA0002FEF3FEF0FC08232910521F08032910557
:103BB0000CF0A5CFCE010E949A23F701928781874E
:103BC00020E030E0C901DF91CF911F910F91FF906C
:103BD000EF9008958F929F92AF92BF92CF92DF9213
:103BE000EF92FF920F931F93CF93DF934C01FB0152
:103BF0006115710509F46AC0A184B284C384D484B8
:103C0000C601B50120E030E040E050E00E9478328B
:103C100088234CF4C40169EF75E00E94612FD7FA44
:103C2000D094D7F8D094C601B5010E94E4327B014C
:103C30008C01C401B801A7012AE030E00E948C2E5B
:103C4000C4016BEF75E00E94612FC801B7010E94AB
:103C500010339B01AC01C601B5010E9413322CEA5E
:103C600035EC47EA56E30E9414327B018C01C5E033
:103C7000D0E0C801B70120E030E040E251E40E940A
:103C8000C2335B016C010E94E4329B01AC017B01F9
:103C9000C401B9014AE050E00E94AF2E00E010E0FC
:103CA000C801B7010E9410339B01AC01C601B501E8
:103CB0000E9413327B018C0120E030E040E050E0B4
:103CC0000E947832882311F0219799F680E090E0E5
:103CD000DF91CF911F910F91FF90EF90DF90CF90E8
:103CE000BF90AF909F908F900895FB016115710573
:103CF00019F420E030E007C0618572854AE050E0A9
:103D00000E942F2F9C01C9010895FB0161157105C7
:103D100091F120852330E9F024303CF42130A1F0EA
:103D2000223064F4222369F026C02530C1F025300A
:103D30009CF02630C9F02730F1F419C06DEF75E022
:103D400005C062E076E002C068E076E00E94612F84
:103D500010C00E94751E0DC00E94EA1D0AC0618538
:103D600072850E94FD1C05C00E94081F02C00E94AF
:103D7000BF1E9C0102C020E030E0C90108950F93EE
:103D80001F93CF93DF93182F092FFB016115710546
:103D9000B9F1C681D7816BE721C068817981812F14
:103DA000902F0E94FD1C8F5F9F4F39F1812F902F24
:103DB0006AE30E94EC2D8F5F9F4FF9F0812F902FC7
:103DC000BE010E94851E8F5F9F4FB9F00A80DB8184
:103DD000C02D209741F0812F902F6CE20E94EC2D96
:103DE0008F5F9F4F51F02097C1F6812F902F6DE785
:103DF0000E94EC2D8F5F9F4F19F42FEF3FEF02C011
:103E000020E030E0C901DF91CF911F910F9108951B
:103E10000F931F93CF93DF93182F092FFB01611589
:103E2000710531F1C681D7816BE510C0812F902FCC
:103E3000BE010E94851E8F5F9F4FB9F00A80DB8113
:103E4000C02D209741F0812F902F6CE20E94EC2D25
:103E50008F5F9F4F51F0209749F7812F902F6DE58D
:103E60000E94EC2D8F5F9F4F19F42FEF3FEF02C0A0
:103E700020E030E0C901DF91CF911F910F910895AB
:103E8000EF92FF920F931F93DF93CF93CDB7DEB7DF
:103E900060970FB6F894DEBF0FBECDBF7B0180E008
:103EA00091E00E9464038C010097D9F01C821B8270
:103EB0001E821D828FEF9FEF98878F838EE396E09F
:103EC0009A8389831A8619861C870B8780E091E084
:103ED000988B8F871E861D86CE010196B7010E94A2
:103EE000851EC80160960FB6F894DEBF0FBECDBF29
:103EF000CF91DF911F910F91FF90EF9008952F9236
:103F00003F924F925F926F92AF92BF92CF92DF92A9
:103F1000EF92FF920F931F93DF93CF93CDB7DEB74E
:103F200028970FB6F894DEBF0FBECDBF1C017A8371
:103F30006983DC01ED91FC910680F781E02D099504
:103F40002C01BFEF8F3F9B0799F08D32910519F03F
:103F5000AA24A39412C0D101ED91FC910680F781AF
:103F6000E02DC10109952C01BFEF8F3F9B0719F48C
:103F70002FEF3FEF42C1AA24AA94C201C0970A972B
:103F800018F000E010E01DC000E010E0C80173E090
:103F9000880F991F7A95E1F7000F111F800F911F6D
:103FA000820100531040080F191FD101ED91FC91BF
:103FB0000680F781E02DC10109952C01C0970A9771
:103FC00028F3BEE24B165104E1F0E5E64E1651042B
:103FD000C1F0F5E44F165104A1F08A2D992787FD11
:103FE00090959C01029FC001039F900D129F900D20
:103FF0001124A981BA811A969C938E93199783E014
:10400000EFC0B801882777FD8095982F0E94123362
:104010007B018C01BEE24B16510419F0CC24DD2447
:1040200037C0D101ED91FC910680F781E02DC101EF
:1040300009952C01CC24DD24C801B70120E030E033
:1040400040E251E40E94C2337B018C01E0EDFFEFBE
:104050004E0E5F1EB201882777FD8095982F0E9433
:1040600012339B01AC01C801B7010E9414327B01DD
:104070008C010894C108D108D101ED91FC91068012
:10408000F781E02DC10109952C01C0970A97A0F294
:10409000B5E64B16510449F0E5E44E16510429F0FB
:1040A00018861F82662463944AC0D101ED91FC9169
:1040B0000680F781E02DC10109952C018B32910515
:1040C00051F4D101ED91FC910680F781E02DC10101
:1040D00009952C0103C08D32910519F06624639473
:1040E0000BC0D101ED91FC910680F781E02DC1015B
:1040F00009952C0166246A9418861F821AC08F8144
:10410000988553E0880F991F5A95E1F7EF81F8855C
:10411000EE0FFF1FE80FF91FE20FF31FF887EF8381
:10412000D101ED91FC910680F781E02DC101099547
:104130002C019201205330402A30310500F36A2DC2
:10414000772767FD7095872F972F0E941233A8015C
:1041500097010E94C2336B837C838D839E83B6015B
:10416000882777FD8095982F0E9412335B016C01A0
:10417000EF81F885BF01882777FD8095982F0E94F1
:1041800012337B018C01662D772767FD7095872F91
:10419000972F0E9412339B01AC01C801B7010E9406
:1041A000C2339B01AC01C601B5010E9414329B01D0
:1041B000AC0160E070E080E291E40E9425349B0154
:1041C000AC016B817C818D819E810E94C233A9816B
:1041D000BA8119966D937D938D939C931C9784E07F
:1041E00018968C93D101ED91FC910284F385E02D1A
:1041F000C101642D099520E030E0C90128960FB671
:10420000F894DEBF0FBECDBFCF91DF911F910F910C
:10421000FF90EF90DF90CF90BF90AF906F905F9046
:104220004F903F902F9008958DE090E00E9464039E
:10423000FC01009729F08DE0DF011D928A95E9F7D6
:10424000CF0108958F929F92AF92BF92DF92EF922B
:10425000FF920F931F93CF93DF93EC015B014A0111
:10426000E881F9810680F781E02D09958B3791056A
:1042700009F068C087E0F5018087CE010E947F1CAD
:10428000E881F9810680F781E02DCE010995BC0116
:104290008D37910509F459C0E881F9810284F385CD
:1042A000E02DCE010995DD24DA940E9414218C01C1
:1042B000009709F447C0DD2021F0F501978386833C
:1042C00006C0F70193838283FC01F582E482CE016C
:1042D0000E947F1CCE01B8010E94631D8F5F9F4F1B
:1042E00089F1CE010E947F1CF8018185928591831E
:1042F000808312861186E881F9810680F781E02D9E
:10430000CE010995CA97F1F4CE010E947F1CCE011F
:10431000B801A4010E94B4218F5F9F4F99F0CE0194
:104320000E947F1CE881F9810680F781E02DCE0193
:104330000995DD2478018C32910509F4B6CF8D37CB
:10434000910519F02FEF3FEF02C020E030E0C901E6
:10435000DF91CF911F910F91FF90EF90DF90BF9071
:10436000AF909F908F900895AF92BF92CF92DF92BF
:10437000EF92FF920F931F93DF93CF93CDB7DEB7EA
:1043800029970FB6F894DEBF0FBECDBF7C016B013D
:104390005A010E947F1C8F5F9F4F09F4B5C0D7015F
:1043A000ED91FC910680F781E02DC70109958C0104
:1043B000BFEF8F3F9B0709F4A7C0D701ED91FC9198
:1043C0000284F385E02DC701602F099502321105A3
:1043D00029F4C701B6010E94631D1DC00D321105ED
:1043E00021F0C801C0970A9728F4C701B6010E94BE
:1043F0007F1F11C00B35110531F4C701B601A501AE
:104400000E94982208C00B37110539F4C701B60184
:10441000A5010E9422219C0179C00E36110519F5D3
:1044200019821A821B821C82D701ED91FC910084B3
:10443000F185E02DC7018E010F5F1F4FB80144E0E9
:1044400050E00995049709F05FC0C8016DEF75E071
:1044500044E050E00E94AC05009709F055C082E0AE
:10446000F60180874EC00636110531F5DE0115963E
:1044700085E0FD0111928A95E9F7F701808191812C
:10448000FC0120853185C701BD0145E050E0F901FF
:1044900009950597C9F5CE01059662E076E045E0FD
:1044A00050E00E94AC05009779F5D60118961C9251
:1044B000189719961C9225C00437110529F5198201
:1044C0001A821B821C82D701ED91FC910084F18538
:1044D000E02DC7018E010F5F1F4FB80144E050E08F
:1044E0000995049789F4C80168E076E044E050E05B
:1044F0000E94AC05009741F481E0F60180878FEFC0
:10450000818720E030E002C02FEF3FEFC9012996FC
:104510000FB6F894DEBF0FBECDBFCF91DF911F91D4
:104520000F91FF90EF90DF90CF90BF90AF900895E4
:104530008F929F92AF92BF92DF92EF92FF920F9372
:104540001F93CF93DF93EC015B014A01E881F9816E
:104550000680F781E02D09958B35910509F047C05C
:1045600086E0F5018087CE010E947F1CE881F981F9
:104570000680F781E02DCE010995BC018D359105AE
:10458000C9F1E881F9810284F385E02DCE01099516
:10459000DD24DA940E9414218C01009741F1DD2082
:1045A00021F0F5019783868306C0F7019383828308
:1045B000FC01F582E482CE010E947F1CCE01B8018D
:1045C000A4010E94B421892B91F4CE010E947F1C8A
:1045D000E881F9810680F781E02DCE010995DD247F
:1045E00078018C329105B1F28D35910519F02FEFDC
:1045F0003FEF02C020E030E0C901DF91CF911F9171
:104600000F91FF90EF90DF90BF90AF909F908F90B1
:104610000895CF92DF92EF92FF920F931F93CF9363
:10462000DF936C018B017A0161157105A1F00E9485
:104630001421EC01009789F0C8010E947F1CC80179
:10464000BE01A7010E94B4218F5F9F4F31F4C601C4
:10465000BE010E94C81CC0E0D0E0CE01DF91CF9126
:104660001F910F91FF90EF90DF90CF90089540E061
:1046700050E00E9409230895DF93CF93CDB7DEB7B2
:1046800060970FB6F894DEBF0FBECDBF9C011C82B1
:104690001B821E821D828FEF9FEF98878F838EE390
:1046A00096E09A8389837A8769871C861B86188A95
:1046B0001F866115710519F4A0E0B0E007C0DB01A9
:1046C0000D900020E9F71197A61BB70BBE87AD87A9
:1046D000C901BE016F5F7F4F0E94372360960FB6FE
:1046E000F894DEBF0FBECDBFCF91DF910895482F64
:1046F000DB0114962D913C91159712968D919C910A
:1047000013972817390778F4ED91FC911197E20F70
:10471000F31F408314968D919C91159701961596E1
:104720009C938E93149780E00895009711F00E9457
:104730000E0408950F931F93CF93DF938C01DC0138
:1047400014962D913C9115972115310541F0ED916D
:10475000FC91E20FF31F319780818823B1F0F801BB
:10476000828193812817390780F40190F081E02D30
:10477000E20FF31F1082D80114968D919C9115972A
:10478000019615969C938E931497F80184819581D8
:104790000E946403EC01009751F06EEE71E10E94FB
:1047A000A505D8011D921C92C8010E940E04CE01DD
:1047B000DF91CF911F910F910895CF93DF9386E002
:1047C00090E00E946403DC010097A9F0EEEEF1E1B5
:1047D0001196FC93EE9380E091E0EF019C01199219
:1047E00021503040E1F713969C938E9312971596C3
:1047F0001C921E921497CD01DF91CF9108958F9254
:104800009F92AF92BF92CF92DF92EF92FF920F935F
:104810001F93CF93DF937B018C01EA012CE330E0FF
:1048200040E050E00E94BE356883C801B7012CE328
:1048300030E040E050E00E94BE35122F032FF42EEE
:10484000E52E622F732F842F952F2CE330E040E06C
:1048500050E00E94BE356983612F702F8F2D9E2DF1
:104860002CE330E040E050E00E94BE35122F032FD1
:10487000F42EE52E622F732F842F952F28E130E040
:1048800040E050E00E94BE356A83612F702F8F2D6B
:104890009E2D28E130E040E050E00E94BE357901D5
:1048A0008A01C801B7016C5F7F4F8F4F9F4F27E090
:1048B00030E040E050E00E94BE356F5F6B8320E047
:1048C000AA24BB24650101C02F5F822E9924F40124
:1048D000EE54F84FCF0183709070892B99F4CF017B
:1048E00064E670E00E94AB35892B39F4CF0160E9B2
:1048F00071E00E94AB35892B29F48EE691E0A0E0AF
:10490000B0E004C08DE691E0A0E0B0E0A80EB91ED2
:10491000CA1EDB1EC501A0E0B0E0E816F9060A07D2
:104920001B0790F62E83F401EE54F84F83E0882E97
:10493000912C8E229F228114910499F4CF0164E678
:1049400070E00E94AB35892B39F4CF0160E971E04A
:104950000E94AB35892B29F48EE691E0A0E0B0E00F
:1049600004C08DE691E0A0E0B0E0A81AB90ACA0A36
:10497000DB0A980187010A191B092C093D09CF019F
:1049800064E670E00E94AB357C01CF0160E971E024
:104990000E94AB35AC01ECE4F6E060E0613051F42C
:1049A0008114910449F4E114F10441F441155105D5
:1049B00029F002C0808103C08CE101C08DE190E04C
:1049C000A0E0B0E0081719072A073B0740F0081BD2
:1049D000190B2A0B3B0B6F5F31966C30F9F66F5F4A
:1049E0006D83802F8F5F8C83DF91CF911F910F910B
:1049F000FF90EF90DF90CF90BF90AF909F908F90FF
:104A00000895EF92FF920F931F937B018C01809189
:104A10007F1090918010A0918110B0918210E816C3
:104A2000F9060A071B0771F0C801B70144E750E116
:104A30000E94FF23E0927F10F0928010009381107B
:104A4000109382101F910F91FF90EF9008950E9494
:104A500001258091771090E008950E9401258091B2
:104A6000751090E008950E9401258091761090E0E5
:104A700008954F925F926F927F928F929F92AF9222
:104A8000BF92CF92DF92EF92FF920F931F93CF933B
:104A9000DF934C01DC0116961C91612F70E080E0E1
:104AA00090E020E833E341EE51E00E948C355B0159
:104AB0006C0122EB37E0E12FF0E0EE54F84F1DC01F
:104AC000C90183709070892BB1F4C90164E670E06C
:104AD0000E94AB35892B39F4C90160E971E00E946D
:104AE000AB35892B41F480E891E5A1E0B0E0A80E58
:104AF000B91ECA1EDB1E2F5F3F4F2E173F0701F75F
:104B0000D40115968C91482E5524C90164E670E0B5
:104B10000E94AB357C01C90160E971E00E94AB35B0
:104B20008C01C1E0D0E093E0692E712C62227322E7
:104B300027C0C230D10591F46114710479F4E114F5
:104B4000F10419F40115110549F480E89BE3A6E28C
:104B5000B0E0A80EB91ECA1EDB1E11C0FE01E55B47
:104B6000F94F608170E080E090E020E831E541E0BD
:104B700050E00E948C35A60EB71EC81ED91E219685
:104B8000C415D505B4F2D40112966C9170E080E0A2
:104B900090E020E13EE040E050E00E948C357B0157
:104BA0008C01F401618170E080E090E02CE330E062
:104BB00040E050E00E948C35E60EF71E081F191FDA
:104BC000D4018C91E80EF11C011D111D14966C91FD
:104BD00070E061507040882777FD8095982F20E81D
:104BE00031E541E050E00E948C35E60EF71E081FCB
:104BF000191FEA0CFB1C0C1D1D1DB701C801DF911C
:104C0000CF911F910F91FF90EF90DF90CF90BF90C9
:104C1000AF909F908F907F906F905F904F9008958E
:104C200060936A1070936B1080936C1090936D106A
:104C300020912A0630912B0640912C0650912D068A
:104C4000260F371F481F591F20936E1030936F1087
:104C5000409370105093711082E090E09093731025
:104C6000809372100E94F12760937B1070937C10E8
:104C700080937D1090937E100895EF92FF920F9392
:104C8000F701E436F1051CF0E25BF74001C07E96C7
:104C9000E0937A1000937910209378108093761027
:104CA000609375104093741084E790E10E94392559
:104CB0000E9410260F91FF90EF900895EF92FF92BF
:104CC0000F931F931CC02F5F3F4F4F4F5F4F209399
:104CD0006A1030936B1040936C1050936D1088EEF7
:104CE00093E0A0E0B0E0E80EF91E0A1F1B1FE0925F
:104CF0007B10F0927C1000937D1010937E100E9428
:104D0000F127E0907B10F0907C1000917D101091C5
:104D10007E106E197F09800B910B20916A103091E3
:104D20006B1040916C1050916D10685E7340804024
:104D3000904048F680916E1090916F10A091701085
:104D4000B0917110281739074A075B07E8F0E09126
:104D50006810F09169103097B9F0099561157105E7
:104D60008105910519F00E9410260EC020E030E068
:104D70008091721090917310892B11F021E030E036
:104D8000309373102093721060916A1070916B10C1
:104D900080916C1090916D101F910F91FF90EF908A
:104DA0000895F999FECF72BD61BDF89A80B5089556
:104DB000F999FECF1FBA72BD61BD40BD0FB6F89420
:104DC000FA9AF99A0FBE0895833078F5E82FF0E04B
:104DD000EE0FFF1FEC57FF4E71836083813069F047
:104DE000813018F0823009F514C0809169008C7F01
:104DF000842B80936900E89A089580916900440F9C
:104E0000551F440F551F837F842B80936900E99AB7
:104E100008958091690094E0440F551F9A95E1F739
:104E20008F7C842B80936900EA9A08951F920F92D9
:104E30000FB60F920BB60F9211242F933F934F93FF
:104E40005F936F937F938F939F93AF93BF93EF93F2
:104E5000FF938091841090918510892B29F0E09127
:104E60008410F09185100995FF91EF91BF91AF915A
:104E70009F918F917F916F915F914F913F912F9172
:104E80000F900BBE0F900FBE0F901F9018951F92A2
:104E90000F920FB60F920BB60F9211242F933F93E0
:104EA0004F935F936F937F938F939F93AF93BF9332
:104EB000EF93FF938091861090918710892B29F0B2
:104EC000E0918610F09187100995FF91EF91BF91C5
:104ED000AF919F918F917F916F915F914F913F9192
:104EE0002F910F900BBE0F900FBE0F901F90189533
:104EF0001F920F920FB60F920BB60F9211242F93A1
:104F00003F934F935F936F937F938F939F93AF9351
:104F1000BF93EF93FF938091881090918910892B14
:104F200029F0E0918810F09189100995FF91EF9197
:104F3000BF91AF919F918F917F916F915F914F91B1
:104F40003F912F910F900BBE0F900FBE0F901F90AF
:104F500018951F920F920FB60F9211242F933F9323
:104F60008F939F93AF93BF9380918E1090918F10EA
:104F7000A0919010B0919110309192100196A11DC6
:104F8000B11D232F2D5F2D3720F02D570196A11D28
:104F9000B11D2093921080938E1090938F10A09348
:104FA0009010B093911080918A1090918B10A091E5
:104FB0008C10B0918D100196A11DB11D80938A10A7
:104FC00090938B10A0938C10B0938D10BF91AF91E4
:104FD0009F918F913F912F910F900FBE0F901F9037
:104FE00018958FB7F89420918E1030918F104091C2
:104FF0009010509191108FBFB901CA0108959B0183
:10500000AC017FB7F89480918A1090918B10A09199
:105010008C10B0918D1066B5A89B05C06F3F19F03C
:105020000196A11DB11D7FBFBA2FA92F982F8827E8
:10503000860F911DA11DB11D62E0880F991FAA1F47
:10504000BB1F6A95D1F7BC012DC0FFB7F8948091C2
:105050008A1090918B10A0918C10B0918D10E6B5B4
:10506000A89B05C0EF3F19F00196A11DB11DFFBF20
:10507000BA2FA92F982F88278E0F911DA11DB11D22
:10508000E2E0880F991FAA1FBB1FEA95D1F7861B84
:10509000970B885E9340C8F221503040404050400A
:1050A00068517C4F211531054105510571F6089570
:1050B000789484B5826084BD84B5816084BD85B5F3
:1050C000826085BD85B5816085BDEEE6F0E08081BA
:1050D00081608083E1E8F0E01082808182608083DB
:1050E000808181608083E0E8F0E08081816080835E
:1050F000E1EBF0E0808184608083E0EBF0E0808190
:1051000081608083E1E9F0E080818260808380813A
:1051100081608083E0E9F0E0808181608083EAE75C
:10512000F0E08081846080838081826080838081E0
:10513000816080838081806880831092C10008959F
:10514000982F883108F09851977080912E0682959B
:10515000880F880F807C892B80937C0080917A0057
:10516000806480937A0080917A0086FDFCCF209144
:10517000780040917900942F80E030E0282B392B83
:10518000C90108951F93CF93DF93182FEB0161E0BE
:105190000E944029209709F468C0CF3FD10509F447
:1051A00067C0E12FF0E0EC5BF94F8491843061F14E
:1051B000853040F48230C9F08330E0F4813009F06A
:1051C00051C00EC0873091F1883020F4863009F04C
:1051D00049C024C0883091F1893009F043C038C0FB
:1051E00084B5806884BDC7BD47C084B5806284BD76
:1051F000C8BD42C080918000806880938000D093B9
:105200008900C093880038C08091800080628093BC
:105210008000D0938B00C0938A002EC08091B00094
:1052200080688093B000C093B30026C08091B00026
:1052300080628093B000C093B4001EC08091900043
:10524000806880939000D0939900C093980014C018
:1052500080919000806280939000D0939B00C093D7
:105260009A000AC0C038D1051CF4812F60E002C04A
:10527000812F61E00E94A429DF91CF911F910895B1
:10528000482F50E0CA018C5D994FFC0124914C5F7E
:10529000594FFA0184918823C1F0E82FF0E0EE0F16
:1052A000FF1FEA51FA4FA591B491662341F49FB7CD
:1052B000F8948C91209582238C939FBF08959FB77B
:1052C000F8948C91822B8C939FBF08958430C9F001
:1052D000853038F48230F1F0833078F4813099F5FC
:1052E00016C08730F9F0883018F4863061F516C0A2
:1052F0008830F1F0893039F521C0809180008F77B6
:1053000003C0809180008F7D80938000089584B5D4
:105310008F7702C084B58F7D84BD08958091B000E1
:105320008F7703C08091B0008F7D8093B000089587
:10533000809190008F7780939000089580919000E5
:105340008F7D809390000895FF920F931F93F62E08
:10535000482F50E0CA018C5B994FFC012491CA018F
:105360008C5D994FFC0114914C5F594FFA010491E7
:105370000023C9F0222319F0822F0E946629E02F12
:10538000F0E0EE0FFF1FE051FA4FA591B4919FB7E7
:10539000F894FF2021F48C911095812302C08C9108
:1053A000812B8C939FBF1F910F91FF9008950895BB
:1053B0001F920F920FB60F920BB60F9211242F93DC
:1053C0003F934F938F939F93EF93FF938091C000F0
:1053D00082FD1DC04091C6002091D3103091D410A1
:1053E0002F5F3F4F2F7330708091D5109091D61062
:1053F0002817390771F0E091D310F091D410ED56D1
:10540000FF4E40833093D4102093D31002C080917C
:10541000C600FF91EF919F918F914F913F912F91F6
:105420000F900BBE0F900FBE0F901F901895089510
:105430001F920F920FB60F920BB60F9211242F935B
:105440003F934F938F939F93EF93FF938091C80067
:1054500082FD1DC04091CE0020915B1130915C1106
:105460002F5F3F4F2F73307080915D1190915E11CF
:105470002817390771F0E0915B11F0915C11E55E3E
:10548000FE4E408330935C1120935B1102C08091EB
:10549000CE00FF91EF919F918F914F913F912F916E
:1054A0000F900BBE0F900FBE0F901F901895E091BC
:1054B000AF11F091B011E05CFF4F8191919120818B
:1054C0003181821B930B8F739070892B11F00E9496
:1054D000D729E091D111F091D211E05CFF4F819179
:1054E000919120813181821B930B8F739070892B56
:1054F00011F00E94172A08951F920F920FB60F9273
:105500000BB60F9211242F933F938F939F93EF939A
:10551000FF932091171130911811809119119091DA
:105520001A112817390731F48091C1008F7D8093BB
:10553000C10014C0E0911911F0911A11E952FF4E07
:1055400020818091191190911A1101968F7390709A
:1055500090931A11809319112093C600FF91EF9137
:105560009F918F913F912F910F900BBE0F900FBE87
:105570000F901F9018951F920F920FB60F920BB6B7
:105580000F9211242F933F938F939F93EF93FF9349
:1055900020919F113091A0118091A1119091A211A1
:1055A0002817390731F48091C9008F7D8093C90095
:1055B00014C0E091A111F091A211E15AFE4E208198
:1055C0008091A1119091A21101968F739070909388
:1055D000A2118093A1112093CE00FF91EF919F9192
:1055E0008F913F912F910F900BBE0F900FBE0F9098
:1055F0001F901895AF92BF92DF92EF92FF920F9398
:105600001F93CF93DF93EC017A018B01DD244030AF
:1056100081EE580780E0680780E0780711F0DD240C
:10562000D39491E0A92EB12CEC89FD89DD2069F09D
:10563000C50108A002C0880F991F0A94E2F7808371
:1056400060E079E08DE390E005C0108260E874E8E6
:105650008EE190E0A80197010E94BE3521503040B4
:1056600040405040569547953795279580E120302A
:10567000380720F0DD2011F0DD24D6CFE889F98944
:105680003083EA89FB89208319A2EE89FF89408152
:1056900021E030E0C9010C8C02C0880F991F0A94E8
:1056A000E2F7482B4083EE89FF894081C9010D8CC8
:1056B00002C0880F991F0A94E2F7482B4083EE89B5
:1056C000FF894081C9010E8C02C0880F991F0A947E
:1056D000E2F7482B4083EE89FF8980810F8C02C05E
:1056E000220F331F0A94E2F7209528232083DF91AD
:1056F000CF911F910F91FF90EF90DF90BF90AF90EF
:105700000895CF93DF93DC011E968D919C911F9796
:10571000EC01C05CDF4FFC01EE5BFF4F288139815B
:105720008081918128173907C9F75696ED91FC9130
:105730005797408121E030E0C9015C960C905C975E
:1057400002C0880F991F0A94E2F780958423808312
:105750005696ED91FC9157974081C9015D960C904A
:105760005D9702C0880F991F0A94E2F78095842301
:1057700080835696ED91FC9157974081C9015E96C2
:105780000C905E9702C0880F991F0A94E2F78095EB
:10579000842380835696ED91FC91579780815F9684
:1057A0000C905F9702C0220F331F0A94E2F72095F6
:1057B000282320831C96ED91FC911D97EE5BFF4FF3
:1057C0008081918192938293DF91CF910895DC0142
:1057D0001C96ED91FC911D97E05CFF4F219131915A
:1057E00080819181281B390B2F733070C901089576
:1057F000DC011C96ED91FC911D97E05CFF4F208130
:105800003181E054F040DF01AE5BBF4F8D919C9140
:1058100011972817390719F42FEF3FEF07C08D9123
:105820009C91E80FF91F8081282F30E0C90108956D
:10583000DC011C96ED91FC911D97E05CFF4F2081EF
:105840003181E054F040DF01AE5BBF4F8D919C9100
:1058500011972817390719F42FEF3FEF10C08D91DA
:105860009C911197E80FF91F20818D919C911197C0
:1058700001968F73907011969C938E9330E0C901BE
:105880000895DC0191968C919197882339F0549674
:10589000ED91FC915597808186FFF9CF91961C92EE
:1058A0000895CF93DF93EC01EE85FF85E05CFF4F19
:1058B00020813181E054F0402F5F3F4F2F733070D3
:1058C000DF01AE5BBF4F8D919C911197281739076F
:1058D000D1F3E05CFF4F80819181E054F040E80F0C
:1058E000F91F6083EE85FF85E05CFF4F31832083E5
:1058F000EE89FF89208181E090E00F8C02C0880F43
:10590000991F0A94E2F7282B208381E089A3EC8970
:10591000FD8980818064808381E090E0DF91CF9178
:1059200008951F931092A6111092A51128EE33E04E
:1059300040E050E02093A7113093A8114093A911A3
:105940005093AA116CE576E07093A4116093A311B3
:1059500083E990E19093B0118093AF1187ED90E1CE
:105960009093B2118093B11185EC90E09093B411B3
:105970008093B31184EC90E09093B6118093B511AD
:1059800080EC90E09093B8118093B71181EC90E097
:105990009093BA118093B91182EC90E09093BC116E
:1059A0008093BB1186EC90E09093BE118093BD1163
:1059B00014E01093BF11B3E0B093C011A7E0A0931F
:1059C000C111F5E0F093C211E1E0E093C311109230
:1059D000C8111092C7112093C9113093CA11409376
:1059E000CB115093CC117093C6116093C5118BE10C
:1059F00091E19093D2118093D1118FE591E1909331
:105A0000D4118093D3118DEC90E09093D6118093B4
:105A1000D5118CEC90E09093D8118093D71188EC3D
:105A200090E09093DA118093D91189EC90E09093F3
:105A3000DC118093DB118AEC90E09093DE1180936F
:105A4000DD118EEC90E09093E0118093DF111093C4
:105A5000E111B093E211A093E311F093E411E0930C
:105A6000E5111F9108950F93FC018CE696E0918358
:105A7000808362834383248305830F9108958CE69A
:105A800096E09093E8118093E7111092E91110923B
:105A9000EA111092EB111092EC1108958F929F92DF
:105AA000AF92BF92CF92DF92EF92FF920F931F932C
:105AB000CF93DF934C016B017C01AA24BB24C0E08F
:105AC000D0E0C601F70162814AE050E00E94DD2E7D
:105AD0008C01C6016EE20E94EC2D080F191FA00E6A
:105AE000B11E21960894E11CF11CC330D10549F781
:105AF000C601F40165814AE050E00E94DD2E950167
:105B0000280F391FC901DF91CF911F910F91FF908D
:105B1000EF90DF90CF90BF90AF909F908F900895BF
:105B2000CF93DF930E9458280E947E0EC7E5DAE2E9
:105B30000E940F1A2097E1F30E94572AF9CFCF92C3
:105B4000DF92EF92FF920F931F93CF93DF937C012D
:105B50006B018A01C0E0D0E00FC0D6016D916D01EC
:105B6000D701ED91FC910190F081E02DC7010995DD
:105B7000C80FD91F015010400115110571F7CE0152
:105B8000DF91CF911F910F91FF90EF90DF90CF9019
:105B90000895EF92FF920F931F93CF93DF937C01B1
:105BA0008B01C0E0D0E0F8010F5F1F4F64916623C6
:105BB00059F0D701ED91FC910190F081E02DC701E2
:105BC0000995C80FD91FEFCFCE01DF91CF911F915B
:105BD0000F91FF90EF900895DC01ED91FC91019001
:105BE000F081E02D09950895EF92FF920F931F9396
:105BF0008C01DC01ED91FC910190F081E02D6DE0D4
:105C000009957C01D801ED91FC910190F081E02D86
:105C1000C8016AE009959C012E0D3F1DC9011F9125
:105C20000F91FF90EF900895EF92FF920F931F93C3
:105C30007C010E94C92D8C01C7010E94F42D9C019A
:105C4000200F311FC9011F910F91FF90EF90089510
:105C50004F925F927F928F929F92AF92BF92CF921C
:105C6000DF92EF92FF920F931F93DF93CF93CDB705
:105C7000DEB7A1970FB6F894DEBF0FBECDBF2C01E3
:105C8000742ECB01223008F42AE019A231E2C32E8F
:105C9000D12CCC0EDD1E822E9924AA24BB24672D84
:105CA000752FA50194010E94BE3579018A01C801B2
:105CB000B701A50194010E948C35472D461B08941D
:105CC000C108D1084A3014F4405D01C0495CF601B6
:105CD0004083E114F1040105110521F07E2C5F2DB4
:105CE000C801DDCFC201B6010E94290AA1960FB6F4
:105CF000F894DEBF0FBECDBFCF91DF911F910F9102
:105D0000FF90EF90DF90CF90BF90AF909F908F90DB
:105D10007F905F904F900895DC012115310541F48B
:105D2000ED91FC910190F081E02D642F099508958B
:105D30000E94282E0895EF92FF920F931F937C01EB
:105D40000E948C2E8C01C7010E94F42D9C01200F13
:105D5000311FC9011F910F91FF90EF900895EF92AD
:105D6000FF920F931F939A017B0100E010E0B801AE
:105D7000A7010E948C2E1F910F91FF90EF90089524
:105D8000CF92DF92EF92FF920F931F936C017B01F2
:105D90009A0100E010E0B801A7010E948C2E8C014E
:105DA000C6010E94F42D080F191FC8011F910F9101
:105DB000FF90EF90DF90CF900895EF92FF920F93B6
:105DC0001F939A01E62EFF2400E010E0B801A7011E
:105DD0000E948C2E1F910F91FF90EF900895CF920B
:105DE000DF92EF92FF920F931F93CF93DF93EC011B
:105DF0006A017B012115310541F4E881F9810190A7
:105E0000F081E02D642F09951FC02A303105D1F4AF
:105E100077FF17C0E881F9810190F081E02D6DE2F4
:105E200009958C0144275527BA014C195D096E0963
:105E30007F09CE012AE00E94282E9801280F391FE1
:105E400004C02AE00E94282E9C01C901DF91CF9155
:105E50001F910F91FF90EF90DF90CF900895EF92F8
:105E6000FF920F931F937B019A010027F7FC009587
:105E7000102FB801A7010E94EF2E1F910F91FF90E4
:105E8000EF900895CF92DF92EF92FF920F931F93BE
:105E90006C017B019A010027F7FC0095102FB801D7
:105EA000A7010E94EF2E8C01C6010E94F42D080F5D
:105EB000191FC8011F910F91FF90EF90DF90CF90B5
:105EC00008950E94290A0895EF92FF920F931F935D
:105ED0007C010E94290A8C01C7010E94F42D080F41
:105EE000191FC8011F910F91FF90EF900895AF9275
:105EF000BF92CF92DF92EF92FF920F931F93CF93B7
:105F0000DF935C016B01EE24FF24C0E0D0E010C001
:105F1000D501ED91FC9100811181C601BE010E9465
:105F20001C30682FC501F8010995E80EF91E21966D
:105F3000F60184819581C817D90750F3C701DF9115
:105F4000CF911F910F91FF90EF90DF90CF90BF9076
:105F5000AF900895EF92FF920F931F937C010E94E0
:105F6000772F8C01C7010E94F42D9C01200F311F57
:105F7000C9011F910F91FF90EF900895CF93DF9388
:105F8000EC010E94F127688779878A879B87E881DF
:105F9000F9810680F781E02DCE0109959C0197FFDC
:105FA00015C00E94F127288539854A855B85621BCB
:105FB000730B840B950B2C813D814E815F816217A1
:105FC00073078407950718F32FEF3FEFC901DF919F
:105FD000CF9108950F931F93CF93DF93182F092F1D
:105FE000EB016DE076E00E94663104C0812F902FB6
:105FF0000E940A31CE010E94BE2FBC0197FFF6CF4E
:10600000812F902FDF91CF911F910F910895FC0167
:106010009B01848195816817790728F460817181DB
:106020006115710529F41092ED116DEE71E102C058
:10603000620F731FCB010895FC018481958168175D
:10604000790748F40190F081E02D309721F0E60FB8
:10605000F71F8081089580E00895FC01808191817F
:10606000009729F420E030E040E050E004C00E94B6
:1060700059059B01AC01B901CA010895CF93DF9383
:10608000FC01DB01848195814817590760F4C081C8
:10609000D1816D917C91CE01840F951F0E94BA052C
:1060A0009C01009719F42FEF3FEF02C02C1B3D0B12
:1060B000C901DF91CF91089540E050E00E943E3049
:1060C0000895DC01FB0114968D919C911597892B05
:1060D00031F461157105A9F090E0808108C00D9040
:1060E000BC91A02D6115710529F490E08C91882355
:1060F00049F407C0CD010E949C059C0190E0232B30
:1061000009F491E0892F0895FC01DB0114962D918B
:106110003C91159784819581821B930B8417950779
:10612000A0F080819181009781F06D917C91611543
:10613000710559F0840F951FA9010E94AC059C01BF
:1061400080E0232B19F481E0089580E008950F93F7
:106150001F93CF93DF93EC018B016F5F7F4F88819B
:1061600099810E946604009711F480E005C099832C
:1061700088831B830A8381E0DF91CF911F910F9168
:106180000895CF93DF93EC0188819981892B29F0C1
:106190008A819B818617970760F4CE010E94A73001
:1061A000882341F08C819D81892B19F4E881F98144
:1061B000108281E0DF91CF910895EF92FF920F93CB
:1061C0001F93CF93DF93EC017B016C817D81E11400
:1061D000F104C1F04115510599F08A01060F171F0E
:1061E000B8010E94C130882369F0888199812C818F
:1061F0003D81820F931FB7010E94A5051D830C836B
:1062000081E001C080E0DF91CF911F910F91FF905D
:10621000EF900895DF93CF9300D0CDB7DEB76983B9
:106220001A82BE016F5F7F4F41E050E00E94DD3077
:106230000F900F90CF91DF910895CF93DF93EC01F2
:1062400088819981009711F00E940E0419821882AA
:106250001D821C821B821A82DF91CF9108950F93B9
:106260001F93182F092FFB01608171814481558193
:106270000E94DD30882321F4812F902F0E941D3150
:10628000812F902F1F910F910895EF92FF920F93FE
:106290001F93CF93DF93EC017B018A01BA010E9427
:1062A000C130882321F4CE010E941D3107C01D8317
:1062B0000C8388819981B7010E94A505CE01DF91E9
:1062C000CF911F910F91FF90EF900895CF93DF939F
:1062D000EC01198218821B821A821D821C821E8286
:1062E0006115710551F0DB010D900020E9F7119760
:1062F000A61BB70BAD010E944531DF91CF910895E8
:10630000CF93DF93EC01198218821B821A821D82BF
:106310001C821E826115710551F0DB010D90002079
:10632000E9F71197A61BB70BAD010E944531DF912C
:10633000CF9108950F931F93182F092F61157105A1
:1063400059F0DB010D900020E9F71197A61BB70B60
:10635000AD010E94453102C00E941D31812F902F56
:106360001F910F910895EF92FF920F931F93DF9368
:10637000CF93CDB7DEB7A1970FB6F894DEBF0FBEAF
:10638000CDBF8C01FC011182108213821282158212
:1063900014821682CB01BA017E010894E11CF11C23
:1063A000A70130E00E94F105C801B7010E949A31AF
:1063B000A1960FB6F894DEBF0FBECDBFCF91DF918F
:1063C0001F910F91FF90EF900895CF93DF93EC0111
:1063D000FB018617970761F0608171816115710576
:1063E00029F0448155810E94453102C00E941D312F
:1063F000CE01DF91CF910895FC01118210821382AA
:1064000012821582148216820E94E5310895FC01E1
:10641000808191810E940E040895FC018081918108
:106420000E940E0408955058BB27AA270ED070C1B1
:1064300061D130F066D120F031F49F3F11F41EF4A9
:1064400056C10EF4E095E7FB4CC1E92F72D180F301
:10645000BA17620773078407950718F071F49EF561
:106460008AC10EF4E0950B2EBA2FA02D0B01B901B5
:1064700090010C01CA01A0011124FF27591B99F0BA
:10648000593F50F4503E68F11A16F040A22F232FC6
:10649000342F4427585FF3CF469537952795A79516
:1064A000F0405395C9F77EF41F16BA0B620B730BBD
:1064B000840BBAF09150A1F0FF0FBB1F661F771F2E
:1064C000881FC2F70EC0BA0F621F731F841F48F4E3
:1064D000879577956795B795F7959E3F08F0B3CF69
:1064E0009395880F08F09927EE0F97958795089553
:1064F000D4D008F481E008950CD00AC102D140F054
:10650000F9D030F021F45F3F19F0EBC0511134C1E4
:10651000EEC00FD198F39923C9F35523B1F3951B1E
:10652000550BBB27AA2762177307840738F09F5FB4
:106530005F4F220F331F441FAA1FA9F333D00E2E23
:106540003AF0E0E830D091505040E695001CCAF790
:1065500029D0FE2F27D0660F771F881FBB1F261755
:1065600037074807AB07B0E809F0BB0B802DBF0128
:10657000FF2793585F4F2AF09E3F510568F0B1C046
:10658000FBC05F3FECF3983EDCF38695779567950B
:10659000B795F7959F5FC9F7880F911D96958795D9
:1065A00097F90895E1E0660F771F881FBB1F6217F8
:1065B00073078407BA0720F0621B730B840BBA0BB6
:1065C000EE1F88F7E0950895BCD088F09F5790F0B3
:1065D000B92F9927B751A0F0D1F0660F771F881F08
:1065E000991F1AF0BA95C9F712C0B13081F0C3D023
:1065F000B1E00895C0C0672F782F8827B85F39F0C1
:10660000B93FCCF3869577956795B395D9F73EF466
:1066100090958095709561957F4F8F4F9F4F08950E
:10662000E89409C097FB3EF490958095709561952C
:106630007F4F8F4F9F4F9923A9F0F92F96E9BB27E2
:106640009395F695879577956795B795F111F8CF5E
:10665000FAF4BB0F11F460FF1BC06F5F7F4F8F4FC9
:106660009F4F16C0882311F096E911C0772321F0BF
:106670009EE8872F762F05C0662371F096E8862F57
:1066800070E060E02AF09A95660F771F881FDAF7AE
:10669000880F9695879597F90895990F0008550FDB
:1066A000AA0BE0E8FEEF16161706E807F907C0F098
:1066B00012161306E407F50798F0621B730B840BA0
:1066C000950B39F40A2661F0232B242B252B21F47A
:1066D00008950A2609F4A140A6958FEF811D811D1A
:1066E000089597F99F6780E870E060E008959FEF54
:1066F00080EC089500240A94161617061806090659
:10670000089500240A941216130614060506089527
:10671000092E0394000C11F4882352F0BB0F40F4AF
:10672000BF2B11F460FF04C06F5F7F4F8F4F9F4FEF
:10673000089557FD9058440F551F59F05F3F71F071
:106740004795880F97FB991F61F09F3F79F08795D8
:106750000895121613061406551FF2CF4695F1DF61
:1067600008C0161617061806991FF1CF86957105F1
:10677000610508940895E894BB2766277727CB0125
:1067800097F908950BD0C4CFB5DF28F0BADF18F021
:10679000952309F0A6CFABCF1124EECFCADFA0F32B
:1067A000959FD1F3950F50E0551F629FF001729FA6
:1067B000BB27F00DB11D639FAA27F00DB11DAA1FC5
:1067C000649F6627B00DA11D661F829F2227B00D12
:1067D000A11D621F739FB00DA11D621F839FA00D9D
:1067E000611D221F749F3327A00D611D231F849FED
:1067F000600D211D822F762F6A2F11249F57504044
:106800008AF0E1F088234AF0EE0FFF1FBB1F661FDE
:10681000771F881F91505040A9F79E3F510570F097
:1068200060CFAACF5F3FECF3983EDCF38695779577
:106830006795B795F795E7959F5FC1F7FE2B880F92
:10684000911D9695879597F90895FA01EE0FFF1F10
:1068500030962105310599F16115710561F4803893
:10686000BFE39B0749F168949038810561F0803857
:10687000BFEF9B0741F0992342F5FF3FE10531054A
:10688000210511F1E8940894E795D901AA2329F488
:10689000AB2FBE2FF85FD0F310C0FF5F70F4A6954A
:1068A000E0F7F73950F019F0FF3A38F49F779F93EB
:1068B0000CD00F9007FC905808953EF018CF60E080
:1068C00070E080E89FE308954FE79F775F934F93D1
:1068D0003F932F939ED02F913F914F915F9152DF25
:1068E00005C019F40EF0FDCE46CF01CF2ADFC8F364
:1068F0009638C0F707F80F92E8942BE33AEA48EB92
:106900005FE74EDF0F920F920F924DB75EB70F9277
:10691000C0D0ECE8F0E016D04F915F91EF91FF917D
:10692000E595EE1FFF1F49F0FE57E0684427EE0F84
:10693000441FFA95E1F74195550B32D00F9007FEB1
:1069400026C00895DF93CF931F930F93FF92EF928A
:10695000DF927B018C01689405C0DA2EEF011EDF07
:10696000FE01E894A5912591359145915591AEF39D
:10697000EF016BDDFE019701A801DA9479F7DF9052
:10698000EF90FF900F911F91CF91DF9108959B01A0
:10699000AC0160E070E080E89FE3AECDA2CEACC079
:1069A000D0DEE8F39923D9F3940F511DBBF3915036
:1069B000504094F059F0882332F0660F771F881FFB
:1069C00091505040C1F79E3F510544F7880F911DEB
:1069D0009695879597F908955F3FACF0983E9CF0A7
:1069E000BB27869577956795B79508F4B160939521
:1069F000C1F7BB0F58F711F460FFE8CF6F5F7F4F0F
:106A00008F4F9F4FE3CFB8CE0EF076C070CE689414
:106A100068CE97DEC8F39923D1F3C6F3DF93CF9303
:106A20001F930F93FF92C92FDD2788232AF0219708
:106A3000660F771F881FDAF720E030E040E85FEB51
:106A40009FE3883920F0803E30F021968F77ECDC90
:106A5000E4EBF0E003C0E8DCE1EEF0E073DF8B0193
:106A6000BE01EC01FB2E6F5771097595771F880BDE
:106A7000990BD8DD28E132E741E35FE38FDEAF2DEC
:106A80009801AE01FF900F911F91CF91DF91DDDC56
:106A90003FCEFA01DC01AA0FBB1F9B01AC01BF571F
:106AA00028F422273327442750781FC0B75188F491
:106AB000AB2F0024469537952795011CA395D2F35B
:106AC000002069F0220F331F441FB395DAF30DD075
:106AD000AACC61307105A0E88A07B94630F49B0161
:106AE000AC016627772788279078309621F020839D
:106AF00031834283538308959F3F49F0915028F496
:106B0000869577956795B7959F5F80389F4F880FDB
:106B10009695879597F90895629FD001739FF0012C
:106B2000829FE00DF11D649FE00DF11D929FF00D1D
:106B3000839FF00D749FF00D659FF00D9927729F54
:106B4000B00DE11DF91F639FB00DE11DF91FBD01DF
:106B5000CF011124089597FB092E07260AD077FD4F
:106B600004D02ED006D000201AF4709561957F4F86
:106B70000895F6F7909581959F4F0895A1E21A2EFA
:106B8000AA1BBB1BFD010DC0AA1FBB1FEE1FFF1FD1
:106B9000A217B307E407F50720F0A21BB30BE40B21
:106BA000F50B661F771F881F991F1A9469F7609568
:106BB0007095809590959B01AC01BD01CF01089522
:106BC000AA1BBB1B51E107C0AA1FBB1FA617B70713
:106BD00010F0A61BB70B881F991F5A95A9F780952F
:106BE0009095BC01CD010895EE0FFF1F0590F49123
:106BF000E02D09942F923F924F925F926F927F9275
:106C00008F929F92AF92BF92CF92DF92EF92FF92BC
:106C10000F931F93CF93DF93CDB7DEB7CA1BDB0B68
:106C20000FB6F894DEBF0FBECDBF09942A8839880D
:106C300048885F846E847D848C849B84AA84B98414
:106C4000C884DF80EE80FD800C811B81AA81B98120
:106C5000CE0FD11D0FB6F894DEBF0FBECDBFED0134
:106C6000089516E0CCE6D6E004C0FE010E94F63599
:0C6C70002296CE36D107C9F7F894FFCF6A
:106C7C000030303030003D003A09006861726452D7
:106C8C0065736574004F4B004552524F520041548E
:106C9C002B435245473F200D00435245473A203085
:106CAC002C3100435245473A20302C350061745E3C
:106CBC00736973723D302C35300D005E534953525D
:106CCC003A005E534953523A20302C0073756E646F
:106CDC006179006D6F6E64617900747565736461C0
:106CEC0079007765646E6573646179007468757298
:106CFC00736461790066726964617900736174759B
:106D0C0072646179007765656B00737472696E6784
:106D1C0053697A653D2000646179006F6666006F87
:106D2C006E0074696D6500726573657400757064CE
:106D3C0061746500706F6D7000696E207365747599
:106D4C00700A00415445310D00446576696365490C
:106D5C004420202020202020203A200053696D2040
:106D6C0050494E2020202020202020203A20005363
:106D7C00696D204B61617274202020202020203A04
:106D8C0020006F70746965733A20703D2C20742C50
:106D9C0020643D30302C20732C20782C206D3D2825
:106DAC006B2F612F742920656E2072004154453081
:106DBC000061745E736973633D300D0061745E73C2
:106DCC006973733D302C737276547970652C22483C
:106DDC00747470220D0061745E736973733D302C92
:106DEC00636F6E49642C300D0061745E736973734C
:106DFC003D302C68634D6574686F642C300D0061F8
:106E0C00745E736973733D302C6164647265737363
:106E1C002C687474703A2F2F706F7274616C2E73AF
:106E2C00656E73652D636F6D70616E792E636F6D1A
:106E3C002F6170692F76312F706F73742F7374619B
:106E4C007475732F002F000D0061745E7369736F7E
:106E5C003D300D006E7520696E207768696C652079
:106E6C006C6F6F7000666F7574636F64653D2000A6
:106E7C00656C61707365642074696D653D20007389
:106E8C007769746368656E2076616E20706F6D70C3
:106E9C0020756974206E6161722061616E00737778
:106EAC0069746368656E2076616E20706F6D7020FA
:106EBC0061616E206E616172207569740075697410
:106ECC0020726170706F7274656572666F75740094
:106EDC00696E20676574616E6453657474696D6561
:106EEC000074696D65547269616C733D2000617446
:106EFC005E736973733D302C616464726573732CBB
:106F0C00687474703A2F2F706F7274616C2E736585
:106F1C006E73652D636F6D70616E792E636F6D2F5F
:106F2C006170692F76312F6765742F74696D652FC9
:106F3C000032300054696A643D20003A0064617488
:106F4C00756D3D200075697420676574616E6453BE
:106F5C00657474696D650074696D655265736574EB
:106F6C000064657669636549443D200061745E7315
:106F7C006973733D302C616464726573732C68742F
:106F8C0074703A2F2F706F7274616C2E73656E7300
:106F9C00652D636F6D70616E792E636F6D2F6170EF
:106FAC00692F76312F6765742F73657474696E67FA
:106FBC00732F006765656E20666574636872657310
:106FCC00706F6E73650073657474696E6773526568
:106FDC007365740047505253547269616C733D2051
:106FEC000041542B434D45453D32200D006E006C45
:106FFC000041542B4350494E3D0070696E3D004199
:10700C00545E534346473D225463702F576974684E
:10701C0055524373222C6F6666200D0061745E73AB
:10702C006963733D302C636F6E547970652C4750D7
:10703C005253300D0041545E534943533D302C2282
:10704C00696E616374544F222C20223230220D0061
:10705C0041545E534943533D302C646E73312C22A2
:10706C00382E382E382E38220D00740041545E53C1
:10707C004943533D302C61706E2C2277796C6573CB
:10708C00732E6174220D00610041545E53494353C9
:10709C003D302C61706E2C225075626C6963342EFD
:1070AC006D326D696E7465726E65742E636F6D22D0
:1070BC000D006B0041545E534943533D302C6170BD
:1070CC006E2C22696E7465726E65742E61636365D5
:1070DC0073732E6E6C220D0041545E534943533D25
:1070EC00302C61706E2C226D326D2E6E65776C6952
:1070FC006E656D6F62696C65220D0041545E53497B
:10710C0043533D302C61706E2C226E65776C696E2A
:10711C00652E6D6F6269220D00706F6D7054656C19
:10712C006C65725569743D2000706F6D7054656CA0
:10713C006C657241616E3D20006F70746965733AC5
:10714C0020703D2C20742C20643D30302C20732C6E
:10715C0020782C206D3D286B2F612F742F6E2F6C97
:10716C002920656E20720022002D002E006E756C99
:10717C006C0066616C7365007472756500002000AC
:10718C00F21200000100010001000F000E000D00C2
:10719C00040002001900FF0005002C010000015042
:1071AC005530332B2056312E310000000000571C77
:1071BC009F2D1B1C291CEE1BE71BE31B1F1C1F1EFA
:1071CC001F1E1F1F1E1F1E1F00000000512C9F2D75
:0E71DC00E72B182CF82B412C000000004E2D44
:00000001FF
